{
    "_format": "hh-sol-artifact-1",
    "contractName": "Domains",
    "sourceName": "contracts/Domains.sol",
    "abi": [
        {
            "inputs": [
                {
                    "internalType": "string",
                    "name": "_tld",
                    "type": "string"
                }
            ],
            "stateMutability": "payable",
            "type": "constructor"
        },
        {
            "anonymous": false,
            "inputs": [
                {
                    "indexed": true,
                    "internalType": "address",
                    "name": "owner",
                    "type": "address"
                },
                {
                    "indexed": true,
                    "internalType": "address",
                    "name": "approved",
                    "type": "address"
                },
                {
                    "indexed": true,
                    "internalType": "uint256",
                    "name": "tokenId",
                    "type": "uint256"
                }
            ],
            "name": "Approval",
            "type": "event"
        },
        {
            "anonymous": false,
            "inputs": [
                {
                    "indexed": true,
                    "internalType": "address",
                    "name": "owner",
                    "type": "address"
                },
                {
                    "indexed": true,
                    "internalType": "address",
                    "name": "operator",
                    "type": "address"
                },
                {
                    "indexed": false,
                    "internalType": "bool",
                    "name": "approved",
                    "type": "bool"
                }
            ],
            "name": "ApprovalForAll",
            "type": "event"
        },
        {
            "anonymous": false,
            "inputs": [
                {
                    "indexed": true,
                    "internalType": "address",
                    "name": "from",
                    "type": "address"
                },
                {
                    "indexed": true,
                    "internalType": "address",
                    "name": "to",
                    "type": "address"
                },
                {
                    "indexed": true,
                    "internalType": "uint256",
                    "name": "tokenId",
                    "type": "uint256"
                }
            ],
            "name": "Transfer",
            "type": "event"
        },
        {
            "inputs": [
                {
                    "internalType": "address",
                    "name": "to",
                    "type": "address"
                },
                {
                    "internalType": "uint256",
                    "name": "tokenId",
                    "type": "uint256"
                }
            ],
            "name": "approve",
            "outputs": [],
            "stateMutability": "nonpayable",
            "type": "function"
        },
        {
            "inputs": [
                {
                    "internalType": "address",
                    "name": "owner",
                    "type": "address"
                }
            ],
            "name": "balanceOf",
            "outputs": [
                {
                    "internalType": "uint256",
                    "name": "",
                    "type": "uint256"
                }
            ],
            "stateMutability": "view",
            "type": "function"
        },
        {
            "inputs": [
                {
                    "internalType": "string",
                    "name": "",
                    "type": "string"
                }
            ],
            "name": "domains",
            "outputs": [
                {
                    "internalType": "address",
                    "name": "",
                    "type": "address"
                }
            ],
            "stateMutability": "view",
            "type": "function"
        },
        {
            "inputs": [
                {
                    "internalType": "string",
                    "name": "name",
                    "type": "string"
                }
            ],
            "name": "getAddress",
            "outputs": [
                {
                    "internalType": "address",
                    "name": "",
                    "type": "address"
                }
            ],
            "stateMutability": "view",
            "type": "function"
        },
        {
            "inputs": [
                {
                    "internalType": "uint256",
                    "name": "tokenId",
                    "type": "uint256"
                }
            ],
            "name": "getApproved",
            "outputs": [
                {
                    "internalType": "address",
                    "name": "",
                    "type": "address"
                }
            ],
            "stateMutability": "view",
            "type": "function"
        },
        {
            "inputs": [
                {
                    "internalType": "string",
                    "name": "name",
                    "type": "string"
                }
            ],
            "name": "getRecord",
            "outputs": [
                {
                    "internalType": "string",
                    "name": "",
                    "type": "string"
                }
            ],
            "stateMutability": "view",
            "type": "function"
        },
        {
            "inputs": [
                {
                    "internalType": "address",
                    "name": "owner",
                    "type": "address"
                },
                {
                    "internalType": "address",
                    "name": "operator",
                    "type": "address"
                }
            ],
            "name": "isApprovedForAll",
            "outputs": [
                {
                    "internalType": "bool",
                    "name": "",
                    "type": "bool"
                }
            ],
            "stateMutability": "view",
            "type": "function"
        },
        {
            "inputs": [],
            "name": "name",
            "outputs": [
                {
                    "internalType": "string",
                    "name": "",
                    "type": "string"
                }
            ],
            "stateMutability": "view",
            "type": "function"
        },
        {
            "inputs": [
                {
                    "internalType": "uint256",
                    "name": "tokenId",
                    "type": "uint256"
                }
            ],
            "name": "ownerOf",
            "outputs": [
                {
                    "internalType": "address",
                    "name": "",
                    "type": "address"
                }
            ],
            "stateMutability": "view",
            "type": "function"
        },
        {
            "inputs": [
                {
                    "internalType": "string",
                    "name": "name",
                    "type": "string"
                }
            ],
            "name": "price",
            "outputs": [
                {
                    "internalType": "uint256",
                    "name": "",
                    "type": "uint256"
                }
            ],
            "stateMutability": "pure",
            "type": "function"
        },
        {
            "inputs": [
                {
                    "internalType": "string",
                    "name": "",
                    "type": "string"
                }
            ],
            "name": "records",
            "outputs": [
                {
                    "internalType": "string",
                    "name": "",
                    "type": "string"
                }
            ],
            "stateMutability": "view",
            "type": "function"
        },
        {
            "inputs": [
                {
                    "internalType": "string",
                    "name": "_domain",
                    "type": "string"
                }
            ],
            "name": "register",
            "outputs": [],
            "stateMutability": "payable",
            "type": "function"
        },
        {
            "inputs": [
                {
                    "internalType": "address",
                    "name": "from",
                    "type": "address"
                },
                {
                    "internalType": "address",
                    "name": "to",
                    "type": "address"
                },
                {
                    "internalType": "uint256",
                    "name": "tokenId",
                    "type": "uint256"
                }
            ],
            "name": "safeTransferFrom",
            "outputs": [],
            "stateMutability": "nonpayable",
            "type": "function"
        },
        {
            "inputs": [
                {
                    "internalType": "address",
                    "name": "from",
                    "type": "address"
                },
                {
                    "internalType": "address",
                    "name": "to",
                    "type": "address"
                },
                {
                    "internalType": "uint256",
                    "name": "tokenId",
                    "type": "uint256"
                },
                {
                    "internalType": "bytes",
                    "name": "_data",
                    "type": "bytes"
                }
            ],
            "name": "safeTransferFrom",
            "outputs": [],
            "stateMutability": "nonpayable",
            "type": "function"
        },
        {
            "inputs": [
                {
                    "internalType": "address",
                    "name": "operator",
                    "type": "address"
                },
                {
                    "internalType": "bool",
                    "name": "approved",
                    "type": "bool"
                }
            ],
            "name": "setApprovalForAll",
            "outputs": [],
            "stateMutability": "nonpayable",
            "type": "function"
        },
        {
            "inputs": [
                {
                    "internalType": "string",
                    "name": "_domain",
                    "type": "string"
                },
                {
                    "internalType": "string",
                    "name": "_record",
                    "type": "string"
                }
            ],
            "name": "setRecord",
            "outputs": [],
            "stateMutability": "nonpayable",
            "type": "function"
        },
        {
            "inputs": [
                {
                    "internalType": "bytes4",
                    "name": "interfaceId",
                    "type": "bytes4"
                }
            ],
            "name": "supportsInterface",
            "outputs": [
                {
                    "internalType": "bool",
                    "name": "",
                    "type": "bool"
                }
            ],
            "stateMutability": "view",
            "type": "function"
        },
        {
            "inputs": [],
            "name": "symbol",
            "outputs": [
                {
                    "internalType": "string",
                    "name": "",
                    "type": "string"
                }
            ],
            "stateMutability": "view",
            "type": "function"
        },
        {
            "inputs": [
                {
                    "internalType": "uint256",
                    "name": "tokenId",
                    "type": "uint256"
                }
            ],
            "name": "tokenURI",
            "outputs": [
                {
                    "internalType": "string",
                    "name": "",
                    "type": "string"
                }
            ],
            "stateMutability": "view",
            "type": "function"
        },
        {
            "inputs": [
                {
                    "internalType": "address",
                    "name": "from",
                    "type": "address"
                },
                {
                    "internalType": "address",
                    "name": "to",
                    "type": "address"
                },
                {
                    "internalType": "uint256",
                    "name": "tokenId",
                    "type": "uint256"
                }
            ],
            "name": "transferFrom",
            "outputs": [],
            "stateMutability": "nonpayable",
            "type": "function"
        }
    ],
    "bytecode": "0x6080604052604051806108a0016040528061086b81526020016200474c61086b9139600b9080519060200190620000389291906200026b565b506040518060400160405280600d81526020017f3c2f746578743e3c2f7376673e00000000000000000000000000000000000000815250600c9080519060200190620000869291906200026b565b5060405162004fd938038062004fd98339818101604052810190620000ac9190620004b8565b6040518060400160405280601281526020017f4e696e6a61204e616d65205365727669636500000000000000000000000000008152506040518060400160405280600381526020017f4e4e5300000000000000000000000000000000000000000000000000000000008152508160009080519060200190620001309291906200026b565b508060019080519060200190620001499291906200026b565b5050508060089080519060200190620001649291906200026b565b506200019560405180606001604052806022815260200162004fb760229139826200019c60201b620013bf1760201c565b5062000606565b6200023e8282604051602401620001b592919062000566565b6040516020818303038152906040527f4b5c4277000000000000000000000000000000000000000000000000000000007bffffffffffffffffffffffffffffffffffffffffffffffffffffffff19166020820180517bffffffffffffffffffffffffffffffffffffffffffffffffffffffff83818316178352505050506200024260201b60201c565b5050565b60008151905060006a636f6e736f6c652e6c6f679050602083016000808483855afa5050505050565b8280546200027990620005d0565b90600052602060002090601f0160209004810192826200029d5760008555620002e9565b82601f10620002b857805160ff1916838001178555620002e9565b82800160010185558215620002e9579182015b82811115620002e8578251825591602001919060010190620002cb565b5b509050620002f89190620002fc565b5090565b5b8082111562000317576000816000905550600101620002fd565b5090565b6000604051905090565b600080fd5b600080fd5b600080fd5b600080fd5b6000601f19601f8301169050919050565b7f4e487b7100000000000000000000000000000000000000000000000000000000600052604160045260246000fd5b620003848262000339565b810181811067ffffffffffffffff82111715620003a657620003a56200034a565b5b80604052505050565b6000620003bb6200031b565b9050620003c9828262000379565b919050565b600067ffffffffffffffff821115620003ec57620003eb6200034a565b5b620003f78262000339565b9050602081019050919050565b60005b838110156200042457808201518184015260208101905062000407565b8381111562000434576000848401525b50505050565b6000620004516200044b84620003ce565b620003af565b90508281526020810184848401111562000470576200046f62000334565b5b6200047d84828562000404565b509392505050565b600082601f8301126200049d576200049c6200032f565b5b8151620004af8482602086016200043a565b91505092915050565b600060208284031215620004d157620004d062000325565b5b600082015167ffffffffffffffff811115620004f257620004f16200032a565b5b620005008482850162000485565b91505092915050565b600081519050919050565b600082825260208201905092915050565b6000620005328262000509565b6200053e818562000514565b93506200055081856020860162000404565b6200055b8162000339565b840191505092915050565b6000604082019050818103600083015262000582818562000525565b9050818103602083015262000598818462000525565b90509392505050565b7f4e487b7100000000000000000000000000000000000000000000000000000000600052602260045260246000fd5b60006002820490506001821680620005e957607f821691505b602082108114156200060057620005ff620005a1565b5b50919050565b61413680620006166000396000f3fe60806040526004361061011f5760003560e01c806370a08231116100a0578063c1880a9811610064578063c1880a981461042f578063c87b56dd14610458578063e985e9c514610495578063f2c298be146104d2578063fe2c6198146104ee5761011f565b806370a082311461033857806395d89b4114610375578063a22cb465146103a0578063b88d4fde146103c9578063bf40fac1146103f25761011f565b806323b872dd116100e757806323b872dd1461022f578063264492351461025857806342842e0e14610295578063541e771d146102be5780636352211e146102fb5761011f565b806301ffc9a71461012457806306fdde0314610161578063081812fc1461018c578063095ea7b3146101c957806311dd8845146101f2575b600080fd5b34801561013057600080fd5b5061014b6004803603810190610146919061272f565b61052b565b6040516101589190612777565b60405180910390f35b34801561016d57600080fd5b5061017661060d565b604051610183919061282b565b60405180910390f35b34801561019857600080fd5b506101b360048036038101906101ae9190612883565b61069f565b6040516101c091906128f1565b60405180910390f35b3480156101d557600080fd5b506101f060048036038101906101eb9190612938565b610724565b005b3480156101fe57600080fd5b50610219600480360381019061021491906129dd565b61083c565b604051610226919061282b565b60405180910390f35b34801561023b57600080fd5b5061025660048036038101906102519190612a2a565b6108ef565b005b34801561026457600080fd5b5061027f600480360381019061027a9190612bad565b61094f565b60405161028c91906128f1565b60405180910390f35b3480156102a157600080fd5b506102bc60048036038101906102b79190612a2a565b610998565b005b3480156102ca57600080fd5b506102e560048036038101906102e09190612bad565b6109b8565b6040516102f2919061282b565b60405180910390f35b34801561030757600080fd5b50610322600480360381019061031d9190612883565b610a6e565b60405161032f91906128f1565b60405180910390f35b34801561034457600080fd5b5061035f600480360381019061035a9190612bf6565b610b20565b60405161036c9190612c32565b60405180910390f35b34801561038157600080fd5b5061038a610bd8565b604051610397919061282b565b60405180910390f35b3480156103ac57600080fd5b506103c760048036038101906103c29190612c79565b610c6a565b005b3480156103d557600080fd5b506103f060048036038101906103eb9190612d5a565b610c80565b005b3480156103fe57600080fd5b50610419600480360381019061041491906129dd565b610ce2565b60405161042691906128f1565b60405180910390f35b34801561043b57600080fd5b5061045660048036038101906104519190612ddd565b610d2d565b005b34801561046457600080fd5b5061047f600480360381019061047a9190612883565b610e11565b60405161048c919061282b565b60405180910390f35b3480156104a157600080fd5b506104bc60048036038101906104b79190612e5e565b610f63565b6040516104c99190612777565b60405180910390f35b6104ec60048036038101906104e791906129dd565b610ff7565b005b3480156104fa57600080fd5b50610515600480360381019061051091906129dd565b61131c565b6040516105229190612c32565b60405180910390f35b60007f80ac58cd000000000000000000000000000000000000000000000000000000007bffffffffffffffffffffffffffffffffffffffffffffffffffffffff1916827bffffffffffffffffffffffffffffffffffffffffffffffffffffffff191614806105f657507f5b5e139f000000000000000000000000000000000000000000000000000000007bffffffffffffffffffffffffffffffffffffffffffffffffffffffff1916827bffffffffffffffffffffffffffffffffffffffffffffffffffffffff1916145b8061060657506106058261145b565b5b9050919050565b60606000805461061c90612ecd565b80601f016020809104026020016040519081016040528092919081815260200182805461064890612ecd565b80156106955780601f1061066a57610100808354040283529160200191610695565b820191906000526020600020905b81548152906001019060200180831161067857829003601f168201915b5050505050905090565b60006106aa826114c5565b6106e9576040517f08c379a00000000000000000000000000000000000000000000000000000000081526004016106e090612f71565b60405180910390fd5b6004600083815260200190815260200160002060009054906101000a900473ffffffffffffffffffffffffffffffffffffffff169050919050565b600061072f82610a6e565b90508073ffffffffffffffffffffffffffffffffffffffff168373ffffffffffffffffffffffffffffffffffffffff1614156107a0576040517f08c379a000000000000000000000000000000000000000000000000000000000815260040161079790613003565b60405180910390fd5b8073ffffffffffffffffffffffffffffffffffffffff166107bf611531565b73ffffffffffffffffffffffffffffffffffffffff1614806107ee57506107ed816107e8611531565b610f63565b5b61082d576040517f08c379a000000000000000000000000000000000000000000000000000000000815260040161082490613095565b60405180910390fd5b6108378383611539565b505050565b6060600a83836040516108509291906130e5565b9081526020016040518091039020805461086990612ecd565b80601f016020809104026020016040519081016040528092919081815260200182805461089590612ecd565b80156108e25780601f106108b7576101008083540402835291602001916108e2565b820191906000526020600020905b8154815290600101906020018083116108c557829003601f168201915b5050505050905092915050565b6109006108fa611531565b826115f2565b61093f576040517f08c379a000000000000000000000000000000000000000000000000000000000815260040161093690613170565b60405180910390fd5b61094a8383836116d0565b505050565b6009818051602081018201805184825260208301602085012081835280955050505050506000915054906101000a900473ffffffffffffffffffffffffffffffffffffffff1681565b6109b383838360405180602001604052806000815250610c80565b505050565b600a8180516020810182018051848252602083016020850120818352809550505050505060009150905080546109ed90612ecd565b80601f0160208091040260200160405190810160405280929190818152602001828054610a1990612ecd565b8015610a665780601f10610a3b57610100808354040283529160200191610a66565b820191906000526020600020905b815481529060010190602001808311610a4957829003601f168201915b505050505081565b6000806002600084815260200190815260200160002060009054906101000a900473ffffffffffffffffffffffffffffffffffffffff169050600073ffffffffffffffffffffffffffffffffffffffff168173ffffffffffffffffffffffffffffffffffffffff161415610b17576040517f08c379a0000000000000000000000000000000000000000000000000000000008152600401610b0e90613202565b60405180910390fd5b80915050919050565b60008073ffffffffffffffffffffffffffffffffffffffff168273ffffffffffffffffffffffffffffffffffffffff161415610b91576040517f08c379a0000000000000000000000000000000000000000000000000000000008152600401610b8890613294565b60405180910390fd5b600360008373ffffffffffffffffffffffffffffffffffffffff1673ffffffffffffffffffffffffffffffffffffffff168152602001908152602001600020549050919050565b606060018054610be790612ecd565b80601f0160208091040260200160405190810160405280929190818152602001828054610c1390612ecd565b8015610c605780601f10610c3557610100808354040283529160200191610c60565b820191906000526020600020905b815481529060010190602001808311610c4357829003601f168201915b5050505050905090565b610c7c610c75611531565b8383611937565b5050565b610c91610c8b611531565b836115f2565b610cd0576040517f08c379a0000000000000000000000000000000000000000000000000000000008152600401610cc790613170565b60405180910390fd5b610cdc84848484611aa4565b50505050565b600060098383604051610cf69291906130e5565b908152602001604051809103902060009054906101000a900473ffffffffffffffffffffffffffffffffffffffff16905092915050565b3373ffffffffffffffffffffffffffffffffffffffff1660098585604051610d569291906130e5565b908152602001604051809103902060009054906101000a900473ffffffffffffffffffffffffffffffffffffffff1673ffffffffffffffffffffffffffffffffffffffff1614610ddb576040517f08c379a0000000000000000000000000000000000000000000000000000000008152600401610dd290613300565b60405180910390fd5b8181600a8686604051610def9291906130e5565b90815260200160405180910390209190610e0a92919061259a565b5050505050565b6060610e1c826114c5565b610e5b576040517f08c379a0000000000000000000000000000000000000000000000000000000008152600401610e5290613392565b60405180910390fd5b6000600660008481526020019081526020016000208054610e7b90612ecd565b80601f0160208091040260200160405190810160405280929190818152602001828054610ea790612ecd565b8015610ef45780601f10610ec957610100808354040283529160200191610ef4565b820191906000526020600020905b815481529060010190602001808311610ed757829003601f168201915b505050505090506000610f05611b00565b9050600081511415610f1b578192505050610f5e565b600082511115610f50578082604051602001610f389291906133e3565b60405160208183030381529060405292505050610f5e565b610f5984611b17565b925050505b919050565b6000600560008473ffffffffffffffffffffffffffffffffffffffff1673ffffffffffffffffffffffffffffffffffffffff16815260200190815260200160002060008373ffffffffffffffffffffffffffffffffffffffff1673ffffffffffffffffffffffffffffffffffffffff16815260200190815260200160002060009054906101000a900460ff16905092915050565b600073ffffffffffffffffffffffffffffffffffffffff16600983836040516110219291906130e5565b908152602001604051809103902060009054906101000a900473ffffffffffffffffffffffffffffffffffffffff1673ffffffffffffffffffffffffffffffffffffffff16146110a6576040517f08c379a000000000000000000000000000000000000000000000000000000000815260040161109d90613453565b60405180910390fd5b60006110b2838361131c565b9050803410156110f7576040517f08c379a00000000000000000000000000000000000000000000000000000000081526004016110ee906134bf565b60405180910390fd5b60008383600860405160200161110f939291906135bf565b60405160208183030381529060405290506000600b82600c604051602001611139939291906135f0565b604051602081830303815290604052905060006111566007611bbe565b905060006111a787878080601f016020809104026020016040519081016040528093929190818152602001838380828437600081840152601f19601f82011690508083019250505050505050611bcc565b905060006111b482611d81565b905060006111ec866111c587611ee2565b846040516020016111d89392919061379d565b604051602081830303815290604052611ee2565b90506000816040516020016112019190613846565b604051602081830303815290604052905061123360405180606001604052806039815260200161404f60399139612046565b6112726040518060400160405280600e81526020017f46696e616c20746f6b656e555249000000000000000000000000000000000000815250826113bf565b61129360405180606001604052806039815260200161408860399139612046565b61129d33866120df565b6112a785826120fd565b3360098b8b6040516112ba9291906130e5565b908152602001604051809103902060006101000a81548173ffffffffffffffffffffffffffffffffffffffff021916908373ffffffffffffffffffffffffffffffffffffffff1602179055506113106007612171565b50505050505050505050565b60008061136c84848080601f016020809104026020016040519081016040528093929190818152602001838380828437600081840152601f19601f82011690508083019250505050505050611bcc565b90506000811161137b57600080fd5b60038114156113945766b1a2bc2ec500009150506113b9565b60048114156113ad57666a94d74f4300009150506113b9565b662386f26fc100009150505b92915050565b61145782826040516024016113d5929190613868565b6040516020818303038152906040527f4b5c4277000000000000000000000000000000000000000000000000000000007bffffffffffffffffffffffffffffffffffffffffffffffffffffffff19166020820180517bffffffffffffffffffffffffffffffffffffffffffffffffffffffff8381831617835250505050612187565b5050565b60007f01ffc9a7000000000000000000000000000000000000000000000000000000007bffffffffffffffffffffffffffffffffffffffffffffffffffffffff1916827bffffffffffffffffffffffffffffffffffffffffffffffffffffffff1916149050919050565b60008073ffffffffffffffffffffffffffffffffffffffff166002600084815260200190815260200160002060009054906101000a900473ffffffffffffffffffffffffffffffffffffffff1673ffffffffffffffffffffffffffffffffffffffff1614159050919050565b600033905090565b816004600083815260200190815260200160002060006101000a81548173ffffffffffffffffffffffffffffffffffffffff021916908373ffffffffffffffffffffffffffffffffffffffff160217905550808273ffffffffffffffffffffffffffffffffffffffff166115ac83610a6e565b73ffffffffffffffffffffffffffffffffffffffff167f8c5be1e5ebec7d5bd14f71427d1e84f3dd0314c0f7b2291e5b200ac8c7c3b92560405160405180910390a45050565b60006115fd826114c5565b61163c576040517f08c379a000000000000000000000000000000000000000000000000000000000815260040161163390613911565b60405180910390fd5b600061164783610a6e565b90508073ffffffffffffffffffffffffffffffffffffffff168473ffffffffffffffffffffffffffffffffffffffff16148061168957506116888185610f63565b5b806116c757508373ffffffffffffffffffffffffffffffffffffffff166116af8461069f565b73ffffffffffffffffffffffffffffffffffffffff16145b91505092915050565b8273ffffffffffffffffffffffffffffffffffffffff166116f082610a6e565b73ffffffffffffffffffffffffffffffffffffffff1614611746576040517f08c379a000000000000000000000000000000000000000000000000000000000815260040161173d906139a3565b60405180910390fd5b600073ffffffffffffffffffffffffffffffffffffffff168273ffffffffffffffffffffffffffffffffffffffff1614156117b6576040517f08c379a00000000000000000000000000000000000000000000000000000000081526004016117ad90613a35565b60405180910390fd5b6117c18383836121b0565b6117cc600082611539565b6001600360008573ffffffffffffffffffffffffffffffffffffffff1673ffffffffffffffffffffffffffffffffffffffff168152602001908152602001600020600082825461181c9190613a84565b925050819055506001600360008473ffffffffffffffffffffffffffffffffffffffff1673ffffffffffffffffffffffffffffffffffffffff16815260200190815260200160002060008282546118739190613ab8565b92505081905550816002600083815260200190815260200160002060006101000a81548173ffffffffffffffffffffffffffffffffffffffff021916908373ffffffffffffffffffffffffffffffffffffffff160217905550808273ffffffffffffffffffffffffffffffffffffffff168473ffffffffffffffffffffffffffffffffffffffff167fddf252ad1be2c89b69c2b068fc378daa952ba7f163c4a11628f55a4df523b3ef60405160405180910390a46119328383836121b5565b505050565b8173ffffffffffffffffffffffffffffffffffffffff168373ffffffffffffffffffffffffffffffffffffffff1614156119a6576040517f08c379a000000000000000000000000000000000000000000000000000000000815260040161199d90613b5a565b60405180910390fd5b80600560008573ffffffffffffffffffffffffffffffffffffffff1673ffffffffffffffffffffffffffffffffffffffff16815260200190815260200160002060008473ffffffffffffffffffffffffffffffffffffffff1673ffffffffffffffffffffffffffffffffffffffff16815260200190815260200160002060006101000a81548160ff0219169083151502179055508173ffffffffffffffffffffffffffffffffffffffff168373ffffffffffffffffffffffffffffffffffffffff167f17307eab39ab6107e8899845ad3d59bd9653f200f220920489ca2b5937696c3183604051611a979190612777565b60405180910390a3505050565b611aaf8484846116d0565b611abb848484846121ba565b611afa576040517f08c379a0000000000000000000000000000000000000000000000000000000008152600401611af190613bec565b60405180910390fd5b50505050565b606060405180602001604052806000815250905090565b6060611b22826114c5565b611b61576040517f08c379a0000000000000000000000000000000000000000000000000000000008152600401611b5890613c7e565b60405180910390fd5b6000611b6b611b00565b90506000815111611b8b5760405180602001604052806000815250611bb6565b80611b9584611d81565b604051602001611ba69291906133e3565b6040516020818303038152906040525b915050919050565b600081600001549050919050565b60008060008084519050600092505b80821015611d76576000858381518110611bf857611bf7613c9e565b5b602001015160f81c60f81b9050608060f81b817effffffffffffffffffffffffffffffffffffffffffffffffffffffffffffff19161015611c4757600183611c409190613ab8565b9250611d62565b60e060f81b817effffffffffffffffffffffffffffffffffffffffffffffffffffffffffffff19161015611c8957600283611c829190613ab8565b9250611d61565b60f060f81b817effffffffffffffffffffffffffffffffffffffffffffffffffffffffffffff19161015611ccb57600383611cc49190613ab8565b9250611d60565b60f8801b817effffffffffffffffffffffffffffffffffffffffffffffffffffffffffffff19161015611d0c57600483611d059190613ab8565b9250611d5f565b60fc60f81b817effffffffffffffffffffffffffffffffffffffffffffffffffffffffffffff19161015611d4e57600583611d479190613ab8565b9250611d5e565b600683611d5b9190613ab8565b92505b5b5b5b5b508280611d6e90613ccd565b935050611bdb565b829350505050919050565b60606000821415611dc9576040518060400160405280600181526020017f30000000000000000000000000000000000000000000000000000000000000008152509050611edd565b600082905060005b60008214611dfb578080611de490613ccd565b915050600a82611df49190613d45565b9150611dd1565b60008167ffffffffffffffff811115611e1757611e16612a82565b5b6040519080825280601f01601f191660200182016040528015611e495781602001600182028036833780820191505090505b5090505b60008514611ed657600182611e629190613a84565b9150600a85611e719190613d76565b6030611e7d9190613ab8565b60f81b818381518110611e9357611e92613c9e565b5b60200101907effffffffffffffffffffffffffffffffffffffffffffffffffffffffffffff1916908160001a905350600a85611ecf9190613d45565b9450611e4d565b8093505050505b919050565b6060600082511415611f0557604051806020016040528060008152509050612041565b60006040518060600160405280604081526020016140c16040913990506000600360028551611f349190613ab8565b611f3e9190613d45565b6004611f4a9190613da7565b67ffffffffffffffff811115611f6357611f62612a82565b5b6040519080825280601f01601f191660200182016040528015611f955781602001600182028036833780820191505090505b509050600182016020820185865187015b80821015612001576003820191508151603f8160121c168501518453600184019350603f81600c1c168501518453600184019350603f8160061c168501518453600184019350603f8116850151845360018401935050611fa6565b505060038651066001811461201d576002811461203057612038565b603d6001830353603d6002830353612038565b603d60018303535b50505080925050505b919050565b6120dc8160405160240161205a919061282b565b6040516020818303038152906040527f41304fac000000000000000000000000000000000000000000000000000000007bffffffffffffffffffffffffffffffffffffffffffffffffffffffff19166020820180517bffffffffffffffffffffffffffffffffffffffffffffffffffffffff8381831617835250505050612187565b50565b6120f9828260405180602001604052806000815250612342565b5050565b612106826114c5565b612145576040517f08c379a000000000000000000000000000000000000000000000000000000000815260040161213c90613e73565b60405180910390fd5b8060066000848152602001908152602001600020908051906020019061216c929190612620565b505050565b6001816000016000828254019250508190555050565b60008151905060006a636f6e736f6c652e6c6f679050602083016000808483855afa5050505050565b505050565b505050565b60006121db8473ffffffffffffffffffffffffffffffffffffffff1661239d565b15612335578373ffffffffffffffffffffffffffffffffffffffff1663150b7a02612204611531565b8786866040518563ffffffff1660e01b81526004016122269493929190613ee8565b6020604051808303816000875af192505050801561226257506040513d601f19601f8201168201806040525081019061225f9190613f49565b60015b6122e5573d8060008114612292576040519150601f19603f3d011682016040523d82523d6000602084013e612297565b606091505b506000815114156122dd576040517f08c379a00000000000000000000000000000000000000000000000000000000081526004016122d490613bec565b60405180910390fd5b805181602001fd5b63150b7a0260e01b7bffffffffffffffffffffffffffffffffffffffffffffffffffffffff1916817bffffffffffffffffffffffffffffffffffffffffffffffffffffffff19161491505061233a565b600190505b949350505050565b61234c83836123c0565b61235960008484846121ba565b612398576040517f08c379a000000000000000000000000000000000000000000000000000000000815260040161238f90613bec565b60405180910390fd5b505050565b6000808273ffffffffffffffffffffffffffffffffffffffff163b119050919050565b600073ffffffffffffffffffffffffffffffffffffffff168273ffffffffffffffffffffffffffffffffffffffff161415612430576040517f08c379a000000000000000000000000000000000000000000000000000000000815260040161242790613fc2565b60405180910390fd5b612439816114c5565b15612479576040517f08c379a00000000000000000000000000000000000000000000000000000000081526004016124709061402e565b60405180910390fd5b612485600083836121b0565b6001600360008473ffffffffffffffffffffffffffffffffffffffff1673ffffffffffffffffffffffffffffffffffffffff16815260200190815260200160002060008282546124d59190613ab8565b92505081905550816002600083815260200190815260200160002060006101000a81548173ffffffffffffffffffffffffffffffffffffffff021916908373ffffffffffffffffffffffffffffffffffffffff160217905550808273ffffffffffffffffffffffffffffffffffffffff16600073ffffffffffffffffffffffffffffffffffffffff167fddf252ad1be2c89b69c2b068fc378daa952ba7f163c4a11628f55a4df523b3ef60405160405180910390a4612596600083836121b5565b5050565b8280546125a690612ecd565b90600052602060002090601f0160209004810192826125c8576000855561260f565b82601f106125e157803560ff191683800117855561260f565b8280016001018555821561260f579182015b8281111561260e5782358255916020019190600101906125f3565b5b50905061261c91906126a6565b5090565b82805461262c90612ecd565b90600052602060002090601f01602090048101928261264e5760008555612695565b82601f1061266757805160ff1916838001178555612695565b82800160010185558215612695579182015b82811115612694578251825591602001919060010190612679565b5b5090506126a291906126a6565b5090565b5b808211156126bf5760008160009055506001016126a7565b5090565b6000604051905090565b600080fd5b600080fd5b60007fffffffff0000000000000000000000000000000000000000000000000000000082169050919050565b61270c816126d7565b811461271757600080fd5b50565b60008135905061272981612703565b92915050565b600060208284031215612745576127446126cd565b5b60006127538482850161271a565b91505092915050565b60008115159050919050565b6127718161275c565b82525050565b600060208201905061278c6000830184612768565b92915050565b600081519050919050565b600082825260208201905092915050565b60005b838110156127cc5780820151818401526020810190506127b1565b838111156127db576000848401525b50505050565b6000601f19601f8301169050919050565b60006127fd82612792565b612807818561279d565b93506128178185602086016127ae565b612820816127e1565b840191505092915050565b6000602082019050818103600083015261284581846127f2565b905092915050565b6000819050919050565b6128608161284d565b811461286b57600080fd5b50565b60008135905061287d81612857565b92915050565b600060208284031215612899576128986126cd565b5b60006128a78482850161286e565b91505092915050565b600073ffffffffffffffffffffffffffffffffffffffff82169050919050565b60006128db826128b0565b9050919050565b6128eb816128d0565b82525050565b600060208201905061290660008301846128e2565b92915050565b612915816128d0565b811461292057600080fd5b50565b6000813590506129328161290c565b92915050565b6000806040838503121561294f5761294e6126cd565b5b600061295d85828601612923565b925050602061296e8582860161286e565b9150509250929050565b600080fd5b600080fd5b600080fd5b60008083601f84011261299d5761299c612978565b5b8235905067ffffffffffffffff8111156129ba576129b961297d565b5b6020830191508360018202830111156129d6576129d5612982565b5b9250929050565b600080602083850312156129f4576129f36126cd565b5b600083013567ffffffffffffffff811115612a1257612a116126d2565b5b612a1e85828601612987565b92509250509250929050565b600080600060608486031215612a4357612a426126cd565b5b6000612a5186828701612923565b9350506020612a6286828701612923565b9250506040612a738682870161286e565b9150509250925092565b600080fd5b7f4e487b7100000000000000000000000000000000000000000000000000000000600052604160045260246000fd5b612aba826127e1565b810181811067ffffffffffffffff82111715612ad957612ad8612a82565b5b80604052505050565b6000612aec6126c3565b9050612af88282612ab1565b919050565b600067ffffffffffffffff821115612b1857612b17612a82565b5b612b21826127e1565b9050602081019050919050565b82818337600083830152505050565b6000612b50612b4b84612afd565b612ae2565b905082815260208101848484011115612b6c57612b6b612a7d565b5b612b77848285612b2e565b509392505050565b600082601f830112612b9457612b93612978565b5b8135612ba4848260208601612b3d565b91505092915050565b600060208284031215612bc357612bc26126cd565b5b600082013567ffffffffffffffff811115612be157612be06126d2565b5b612bed84828501612b7f565b91505092915050565b600060208284031215612c0c57612c0b6126cd565b5b6000612c1a84828501612923565b91505092915050565b612c2c8161284d565b82525050565b6000602082019050612c476000830184612c23565b92915050565b612c568161275c565b8114612c6157600080fd5b50565b600081359050612c7381612c4d565b92915050565b60008060408385031215612c9057612c8f6126cd565b5b6000612c9e85828601612923565b9250506020612caf85828601612c64565b9150509250929050565b600067ffffffffffffffff821115612cd457612cd3612a82565b5b612cdd826127e1565b9050602081019050919050565b6000612cfd612cf884612cb9565b612ae2565b905082815260208101848484011115612d1957612d18612a7d565b5b612d24848285612b2e565b509392505050565b600082601f830112612d4157612d40612978565b5b8135612d51848260208601612cea565b91505092915050565b60008060008060808587031215612d7457612d736126cd565b5b6000612d8287828801612923565b9450506020612d9387828801612923565b9350506040612da48782880161286e565b925050606085013567ffffffffffffffff811115612dc557612dc46126d2565b5b612dd187828801612d2c565b91505092959194509250565b60008060008060408587031215612df757612df66126cd565b5b600085013567ffffffffffffffff811115612e1557612e146126d2565b5b612e2187828801612987565b9450945050602085013567ffffffffffffffff811115612e4457612e436126d2565b5b612e5087828801612987565b925092505092959194509250565b60008060408385031215612e7557612e746126cd565b5b6000612e8385828601612923565b9250506020612e9485828601612923565b9150509250929050565b7f4e487b7100000000000000000000000000000000000000000000000000000000600052602260045260246000fd5b60006002820490506001821680612ee557607f821691505b60208210811415612ef957612ef8612e9e565b5b50919050565b7f4552433732313a20617070726f76656420717565727920666f72206e6f6e657860008201527f697374656e7420746f6b656e0000000000000000000000000000000000000000602082015250565b6000612f5b602c8361279d565b9150612f6682612eff565b604082019050919050565b60006020820190508181036000830152612f8a81612f4e565b9050919050565b7f4552433732313a20617070726f76616c20746f2063757272656e74206f776e6560008201527f7200000000000000000000000000000000000000000000000000000000000000602082015250565b6000612fed60218361279d565b9150612ff882612f91565b604082019050919050565b6000602082019050818103600083015261301c81612fe0565b9050919050565b7f4552433732313a20617070726f76652063616c6c6572206973206e6f74206f7760008201527f6e6572206e6f7220617070726f76656420666f7220616c6c0000000000000000602082015250565b600061307f60388361279d565b915061308a82613023565b604082019050919050565b600060208201905081810360008301526130ae81613072565b9050919050565b600081905092915050565b60006130cc83856130b5565b93506130d9838584612b2e565b82840190509392505050565b60006130f28284866130c0565b91508190509392505050565b7f4552433732313a207472616e736665722063616c6c6572206973206e6f74206f60008201527f776e6572206e6f7220617070726f766564000000000000000000000000000000602082015250565b600061315a60318361279d565b9150613165826130fe565b604082019050919050565b600060208201905081810360008301526131898161314d565b9050919050565b7f4552433732313a206f776e657220717565727920666f72206e6f6e657869737460008201527f656e7420746f6b656e0000000000000000000000000000000000000000000000602082015250565b60006131ec60298361279d565b91506131f782613190565b604082019050919050565b6000602082019050818103600083015261321b816131df565b9050919050565b7f4552433732313a2062616c616e636520717565727920666f7220746865207a6560008201527f726f206164647265737300000000000000000000000000000000000000000000602082015250565b600061327e602a8361279d565b915061328982613222565b604082019050919050565b600060208201905081810360008301526132ad81613271565b9050919050565b7f4e6f74206f776e6572206f6620646f6d61696e00000000000000000000000000600082015250565b60006132ea60138361279d565b91506132f5826132b4565b602082019050919050565b60006020820190508181036000830152613319816132dd565b9050919050565b7f45524337323155524953746f726167653a2055524920717565727920666f722060008201527f6e6f6e6578697374656e7420746f6b656e000000000000000000000000000000602082015250565b600061337c60318361279d565b915061338782613320565b604082019050919050565b600060208201905081810360008301526133ab8161336f565b9050919050565b60006133bd82612792565b6133c781856130b5565b93506133d78185602086016127ae565b80840191505092915050565b60006133ef82856133b2565b91506133fb82846133b2565b91508190509392505050565b7f446f6d61696e20616c7265616479207265676973746572656400000000000000600082015250565b600061343d60198361279d565b915061344882613407565b602082019050919050565b6000602082019050818103600083015261346c81613430565b9050919050565b7f4e6f7420656e6f756768204d6174696320706169640000000000000000000000600082015250565b60006134a960158361279d565b91506134b482613473565b602082019050919050565b600060208201905081810360008301526134d88161349c565b9050919050565b7f2e00000000000000000000000000000000000000000000000000000000000000600082015250565b60006135156001836130b5565b9150613520826134df565b600182019050919050565b60008190508160005260206000209050919050565b6000815461354d81612ecd565b61355781866130b5565b945060018216600081146135725760018114613583576135b6565b60ff198316865281860193506135b6565b61358c8561352b565b60005b838110156135ae5781548189015260018201915060208101905061358f565b838801955050505b50505092915050565b60006135cc8285876130c0565b91506135d782613508565b91506135e38284613540565b9150819050949350505050565b60006135fc8286613540565b915061360882856133b2565b91506136148284613540565b9150819050949350505050565b7f7b226e616d65223a202200000000000000000000000000000000000000000000600082015250565b6000613657600a836130b5565b915061366282613621565b600a82019050919050565b7f222c20226465736372697074696f6e223a20224120646f6d61696e206f6e207460008201527f6865204e696e6a61206e616d652073657276696365222c2022696d616765223a60208201527f2022646174613a696d6167652f7376672b786d6c3b6261736536342c00000000604082015250565b60006136ef605c836130b5565b91506136fa8261366d565b605c82019050919050565b7f222c226c656e677468223a220000000000000000000000000000000000000000600082015250565b600061373b600c836130b5565b915061374682613705565b600c82019050919050565b7f227d000000000000000000000000000000000000000000000000000000000000600082015250565b60006137876002836130b5565b915061379282613751565b600282019050919050565b60006137a88261364a565b91506137b482866133b2565b91506137bf826136e2565b91506137cb82856133b2565b91506137d68261372e565b91506137e282846133b2565b91506137ed8261377a565b9150819050949350505050565b7f646174613a6170706c69636174696f6e2f6a736f6e3b6261736536342c000000600082015250565b6000613830601d836130b5565b915061383b826137fa565b601d82019050919050565b600061385182613823565b915061385d82846133b2565b915081905092915050565b6000604082019050818103600083015261388281856127f2565b9050818103602083015261389681846127f2565b90509392505050565b7f4552433732313a206f70657261746f7220717565727920666f72206e6f6e657860008201527f697374656e7420746f6b656e0000000000000000000000000000000000000000602082015250565b60006138fb602c8361279d565b91506139068261389f565b604082019050919050565b6000602082019050818103600083015261392a816138ee565b9050919050565b7f4552433732313a207472616e736665722066726f6d20696e636f72726563742060008201527f6f776e6572000000000000000000000000000000000000000000000000000000602082015250565b600061398d60258361279d565b915061399882613931565b604082019050919050565b600060208201905081810360008301526139bc81613980565b9050919050565b7f4552433732313a207472616e7366657220746f20746865207a65726f2061646460008201527f7265737300000000000000000000000000000000000000000000000000000000602082015250565b6000613a1f60248361279d565b9150613a2a826139c3565b604082019050919050565b60006020820190508181036000830152613a4e81613a12565b9050919050565b7f4e487b7100000000000000000000000000000000000000000000000000000000600052601160045260246000fd5b6000613a8f8261284d565b9150613a9a8361284d565b925082821015613aad57613aac613a55565b5b828203905092915050565b6000613ac38261284d565b9150613ace8361284d565b9250827fffffffffffffffffffffffffffffffffffffffffffffffffffffffffffffffff03821115613b0357613b02613a55565b5b828201905092915050565b7f4552433732313a20617070726f766520746f2063616c6c657200000000000000600082015250565b6000613b4460198361279d565b9150613b4f82613b0e565b602082019050919050565b60006020820190508181036000830152613b7381613b37565b9050919050565b7f4552433732313a207472616e7366657220746f206e6f6e20455243373231526560008201527f63656976657220696d706c656d656e7465720000000000000000000000000000602082015250565b6000613bd660328361279d565b9150613be182613b7a565b604082019050919050565b60006020820190508181036000830152613c0581613bc9565b9050919050565b7f4552433732314d657461646174613a2055524920717565727920666f72206e6f60008201527f6e6578697374656e7420746f6b656e0000000000000000000000000000000000602082015250565b6000613c68602f8361279d565b9150613c7382613c0c565b604082019050919050565b60006020820190508181036000830152613c9781613c5b565b9050919050565b7f4e487b7100000000000000000000000000000000000000000000000000000000600052603260045260246000fd5b6000613cd88261284d565b91507fffffffffffffffffffffffffffffffffffffffffffffffffffffffffffffffff821415613d0b57613d0a613a55565b5b600182019050919050565b7f4e487b7100000000000000000000000000000000000000000000000000000000600052601260045260246000fd5b6000613d508261284d565b9150613d5b8361284d565b925082613d6b57613d6a613d16565b5b828204905092915050565b6000613d818261284d565b9150613d8c8361284d565b925082613d9c57613d9b613d16565b5b828206905092915050565b6000613db28261284d565b9150613dbd8361284d565b9250817fffffffffffffffffffffffffffffffffffffffffffffffffffffffffffffffff0483118215151615613df657613df5613a55565b5b828202905092915050565b7f45524337323155524953746f726167653a2055524920736574206f66206e6f6e60008201527f6578697374656e7420746f6b656e000000000000000000000000000000000000602082015250565b6000613e5d602e8361279d565b9150613e6882613e01565b604082019050919050565b60006020820190508181036000830152613e8c81613e50565b9050919050565b600081519050919050565b600082825260208201905092915050565b6000613eba82613e93565b613ec48185613e9e565b9350613ed48185602086016127ae565b613edd816127e1565b840191505092915050565b6000608082019050613efd60008301876128e2565b613f0a60208301866128e2565b613f176040830185612c23565b8181036060830152613f298184613eaf565b905095945050505050565b600081519050613f4381612703565b92915050565b600060208284031215613f5f57613f5e6126cd565b5b6000613f6d84828501613f34565b91505092915050565b7f4552433732313a206d696e7420746f20746865207a65726f2061646472657373600082015250565b6000613fac60208361279d565b9150613fb782613f76565b602082019050919050565b60006020820190508181036000830152613fdb81613f9f565b9050919050565b7f4552433732313a20746f6b656e20616c7265616479206d696e74656400000000600082015250565b6000614018601c8361279d565b915061402382613fe2565b602082019050919050565b600060208201905081810360008301526140478161400b565b905091905056fe0a2d2d2d2d2d2d2d2d2d2d2d2d2d2d2d2d2d2d2d2d2d2d2d2d2d2d2d2d2d2d2d2d2d2d2d2d2d2d2d2d2d2d2d2d2d2d2d2d2d2d2d2d2d2d2d2d2d2d2d2d2d2d2d2d2d2d2d2d2d2d2d2d2d2d2d2d2d2d2d2d2d2d2d2d2d2d2d2d2d2d2d2d2d2d2d2d2d2d2d2d2d2d2d2d2d2d2d2d2d2d2d2d0a4142434445464748494a4b4c4d4e4f505152535455565758595a6162636465666768696a6b6c6d6e6f707172737475767778797a303132333435363738392b2fa26469706673582212208eee1ee2d7788c4b800052d11aaa53155dd59c491775924af50f5fd3725f3c2b64736f6c634300080a00333c73766720786d6c6e733d22687474703a2f2f7777772e77332e6f72672f323030302f737667222077696474683d2232373022206865696768743d22323730222066696c6c3d226e6f6e65223e3c706174682066696c6c3d2275726c282342292220643d224d302030683237307632373048307a222f3e3c646566733e3c66696c7465722069643d22412220636f6c6f722d696e746572706f6c6174696f6e2d66696c746572733d2273524742222066696c746572556e6974733d227573657253706163654f6e55736522206865696768743d22323730222077696474683d22323730223e3c666544726f70536861646f772064783d2230222064793d22312220737464446576696174696f6e3d22322220666c6f6f642d6f7061636974793d222e323235222077696474683d223230302522206865696768743d2232303025222f3e3c2f66696c7465723e3c2f646566733e3c7061746820643d224d37322e3836332034322e393439632d2e3636382d2e3338372d312e3432362d2e35392d322e3139372d2e3539732d312e3532392e3230342d322e3139372e35396c2d31302e30383120362e3033322d362e383520332e3933342d31302e30383120362e303332632d2e3636382e3338372d312e3432362e35392d322e3139372e3539732d312e3532392d2e3230342d322e3139372d2e35396c2d382e3031332d342e37323161342e353220342e35322030203020312d312e3538392d312e363136632d2e3338342d2e3636352d2e3539342d312e3431382d2e3630382d322e313837762d392e3331632d2e3031332d2e3737352e3138352d312e3533382e3537322d322e32303861342e323520342e323520302030203120312e3632352d312e3539356c372e3838342d342e3539632e3636382d2e33383720312e3432362d2e353920322e3139372d2e353973312e3532392e32303420322e3139372e35396c372e38383420342e353961342e353220342e353220302030203120312e35383920312e363136632e3338342e3636352e35393420312e3431382e36303820322e31383776362e3033326c362e38352d342e303635762d362e303332632e3031332d2e3737352d2e3138352d312e3533382d2e3537322d322e32303861342e323520342e32352030203020302d312e3632352d312e3539354c34312e3435362032342e3539632d2e3636382d2e3338372d312e3432362d2e35392d322e3139372d2e3539732d312e3532392e3230342d322e3139372e35396c2d31342e38363420382e36353561342e323520342e32352030203020302d312e36323520312e353935632d2e3338372e36372d2e35383520312e3433342d2e35373220322e3230387631372e343431632d2e3031332e3737352e31383520312e3533382e35373220322e32303861342e323520342e323520302030203020312e36323520312e3539356c31342e38363420382e363535632e3636382e33383720312e3432362e353920322e3139372e353973312e3532392d2e32303420322e3139372d2e35396c31302e3038312d352e39303120362e38352d342e3036352031302e3038312d352e393031632e3636382d2e33383720312e3432362d2e353920322e3139372d2e353973312e3532392e32303420322e3139372e35396c372e38383420342e353961342e353220342e353220302030203120312e35383920312e363136632e3338342e3636352e35393420312e3431382e36303820322e31383776392e333131632e3031332e3737352d2e31383520312e3533382d2e35373220322e32303861342e323520342e32352030203020312d312e36323520312e3539356c2d372e38383420342e373231632d2e3636382e3338372d312e3432362e35392d322e3139372e3539732d312e3532392d2e3230342d322e3139372d2e35396c2d372e3838342d342e353961342e353220342e35322030203020312d312e3538392d312e363136632d2e3338352d2e3636352d2e3539342d312e3431382d2e3630382d322e313837762d362e3033326c2d362e383520342e30363576362e303332632d2e3031332e3737352e31383520312e3533382e35373220322e32303861342e323520342e323520302030203020312e36323520312e3539356c31342e38363420382e363535632e3636382e33383720312e3432362e353920322e3139372e353973312e3532392d2e32303420322e3139372d2e35396c31342e3836342d382e363535632e3635372d2e33393420312e3230342d2e393520312e3538392d312e363136732e3539342d312e3431382e3630392d322e3138375635352e353338632e3031332d2e3737352d2e3138352d312e3533382d2e3537322d322e32303861342e323520342e32352030203020302d312e3632352d312e3539356c2d31342e3939332d382e3738367a222066696c6c3d2223666666222f3e3c646566733e3c6c696e6561724772616469656e742069643d2242222078313d2230222079313d2230222078323d22323730222079323d2232373022206772616469656e74556e6974733d227573657253706163654f6e557365223e3c73746f702073746f702d636f6c6f723d2223636235656565222f3e3c73746f70206f66667365743d2231222073746f702d636f6c6f723d2223306364376534222073746f702d6f7061636974793d222e3939222f3e3c2f6c696e6561724772616469656e743e3c2f646566733e3c7465787420783d2233322e352220793d223233312220666f6e742d73697a653d223237222066696c6c3d2223666666222066696c7465723d2275726c282341292220666f6e742d66616d696c793d22506c7573204a616b617274612053616e732c44656a6156752053616e732c4e6f746f20436f6c6f7220456d6f6a692c4170706c6520436f6c6f7220456d6f6a692c73616e732d73657269662220666f6e742d7765696768743d22626f6c64223e54484953204953204d5920444f4d41494e5320434f4e54524143542e204e4943452e",
    "linkReferences": {},
    "deployedLinkReferences": {}
}