{
    "_format": "hh-sol-artifact-1",
    "contractName": "Domains",
    "sourceName": "contracts/Domains.sol",
    "abi": [
        {
            "inputs": [
                {
                    "internalType": "string",
                    "name": "_tld",
                    "type": "string"
                }
            ],
            "stateMutability": "payable",
            "type": "constructor"
        },
        {
            "inputs": [],
            "name": "AlreadyRegistered",
            "type": "error"
        },
        {
            "inputs": [
                {
                    "internalType": "string",
                    "name": "name",
                    "type": "string"
                }
            ],
            "name": "InvalidName",
            "type": "error"
        },
        {
            "inputs": [],
            "name": "Unauthorized",
            "type": "error"
        },
        {
            "anonymous": false,
            "inputs": [
                {
                    "indexed": true,
                    "internalType": "address",
                    "name": "owner",
                    "type": "address"
                },
                {
                    "indexed": true,
                    "internalType": "address",
                    "name": "approved",
                    "type": "address"
                },
                {
                    "indexed": true,
                    "internalType": "uint256",
                    "name": "tokenId",
                    "type": "uint256"
                }
            ],
            "name": "Approval",
            "type": "event"
        },
        {
            "anonymous": false,
            "inputs": [
                {
                    "indexed": true,
                    "internalType": "address",
                    "name": "owner",
                    "type": "address"
                },
                {
                    "indexed": true,
                    "internalType": "address",
                    "name": "operator",
                    "type": "address"
                },
                {
                    "indexed": false,
                    "internalType": "bool",
                    "name": "approved",
                    "type": "bool"
                }
            ],
            "name": "ApprovalForAll",
            "type": "event"
        },
        {
            "anonymous": false,
            "inputs": [
                {
                    "indexed": true,
                    "internalType": "address",
                    "name": "from",
                    "type": "address"
                },
                {
                    "indexed": true,
                    "internalType": "address",
                    "name": "to",
                    "type": "address"
                },
                {
                    "indexed": true,
                    "internalType": "uint256",
                    "name": "tokenId",
                    "type": "uint256"
                }
            ],
            "name": "Transfer",
            "type": "event"
        },
        {
            "inputs": [
                {
                    "internalType": "address",
                    "name": "to",
                    "type": "address"
                },
                {
                    "internalType": "uint256",
                    "name": "tokenId",
                    "type": "uint256"
                }
            ],
            "name": "approve",
            "outputs": [],
            "stateMutability": "nonpayable",
            "type": "function"
        },
        {
            "inputs": [
                {
                    "internalType": "address",
                    "name": "owner",
                    "type": "address"
                }
            ],
            "name": "balanceOf",
            "outputs": [
                {
                    "internalType": "uint256",
                    "name": "",
                    "type": "uint256"
                }
            ],
            "stateMutability": "view",
            "type": "function"
        },
        {
            "inputs": [
                {
                    "internalType": "string",
                    "name": "",
                    "type": "string"
                }
            ],
            "name": "domains",
            "outputs": [
                {
                    "internalType": "address",
                    "name": "",
                    "type": "address"
                }
            ],
            "stateMutability": "view",
            "type": "function"
        },
        {
            "inputs": [
                {
                    "internalType": "string",
                    "name": "name",
                    "type": "string"
                }
            ],
            "name": "getAddress",
            "outputs": [
                {
                    "internalType": "address",
                    "name": "",
                    "type": "address"
                }
            ],
            "stateMutability": "view",
            "type": "function"
        },
        {
            "inputs": [],
            "name": "getAllNames",
            "outputs": [
                {
                    "internalType": "string[]",
                    "name": "",
                    "type": "string[]"
                }
            ],
            "stateMutability": "view",
            "type": "function"
        },
        {
            "inputs": [
                {
                    "internalType": "uint256",
                    "name": "tokenId",
                    "type": "uint256"
                }
            ],
            "name": "getApproved",
            "outputs": [
                {
                    "internalType": "address",
                    "name": "",
                    "type": "address"
                }
            ],
            "stateMutability": "view",
            "type": "function"
        },
        {
            "inputs": [
                {
                    "internalType": "string",
                    "name": "name",
                    "type": "string"
                }
            ],
            "name": "getRecord",
            "outputs": [
                {
                    "internalType": "string",
                    "name": "",
                    "type": "string"
                }
            ],
            "stateMutability": "view",
            "type": "function"
        },
        {
            "inputs": [
                {
                    "internalType": "address",
                    "name": "owner",
                    "type": "address"
                },
                {
                    "internalType": "address",
                    "name": "operator",
                    "type": "address"
                }
            ],
            "name": "isApprovedForAll",
            "outputs": [
                {
                    "internalType": "bool",
                    "name": "",
                    "type": "bool"
                }
            ],
            "stateMutability": "view",
            "type": "function"
        },
        {
            "inputs": [],
            "name": "name",
            "outputs": [
                {
                    "internalType": "string",
                    "name": "",
                    "type": "string"
                }
            ],
            "stateMutability": "view",
            "type": "function"
        },
        {
            "inputs": [
                {
                    "internalType": "uint256",
                    "name": "",
                    "type": "uint256"
                }
            ],
            "name": "names",
            "outputs": [
                {
                    "internalType": "string",
                    "name": "",
                    "type": "string"
                }
            ],
            "stateMutability": "view",
            "type": "function"
        },
        {
            "inputs": [
                {
                    "internalType": "uint256",
                    "name": "tokenId",
                    "type": "uint256"
                }
            ],
            "name": "ownerOf",
            "outputs": [
                {
                    "internalType": "address",
                    "name": "",
                    "type": "address"
                }
            ],
            "stateMutability": "view",
            "type": "function"
        },
        {
            "inputs": [
                {
                    "internalType": "string",
                    "name": "name",
                    "type": "string"
                }
            ],
            "name": "price",
            "outputs": [
                {
                    "internalType": "uint256",
                    "name": "",
                    "type": "uint256"
                }
            ],
            "stateMutability": "pure",
            "type": "function"
        },
        {
            "inputs": [
                {
                    "internalType": "string",
                    "name": "",
                    "type": "string"
                }
            ],
            "name": "records",
            "outputs": [
                {
                    "internalType": "string",
                    "name": "",
                    "type": "string"
                }
            ],
            "stateMutability": "view",
            "type": "function"
        },
        {
            "inputs": [
                {
                    "internalType": "string",
                    "name": "_domain",
                    "type": "string"
                }
            ],
            "name": "register",
            "outputs": [],
            "stateMutability": "payable",
            "type": "function"
        },
        {
            "inputs": [
                {
                    "internalType": "address",
                    "name": "from",
                    "type": "address"
                },
                {
                    "internalType": "address",
                    "name": "to",
                    "type": "address"
                },
                {
                    "internalType": "uint256",
                    "name": "tokenId",
                    "type": "uint256"
                }
            ],
            "name": "safeTransferFrom",
            "outputs": [],
            "stateMutability": "nonpayable",
            "type": "function"
        },
        {
            "inputs": [
                {
                    "internalType": "address",
                    "name": "from",
                    "type": "address"
                },
                {
                    "internalType": "address",
                    "name": "to",
                    "type": "address"
                },
                {
                    "internalType": "uint256",
                    "name": "tokenId",
                    "type": "uint256"
                },
                {
                    "internalType": "bytes",
                    "name": "_data",
                    "type": "bytes"
                }
            ],
            "name": "safeTransferFrom",
            "outputs": [],
            "stateMutability": "nonpayable",
            "type": "function"
        },
        {
            "inputs": [
                {
                    "internalType": "address",
                    "name": "operator",
                    "type": "address"
                },
                {
                    "internalType": "bool",
                    "name": "approved",
                    "type": "bool"
                }
            ],
            "name": "setApprovalForAll",
            "outputs": [],
            "stateMutability": "nonpayable",
            "type": "function"
        },
        {
            "inputs": [
                {
                    "internalType": "string",
                    "name": "_domain",
                    "type": "string"
                },
                {
                    "internalType": "string",
                    "name": "_record",
                    "type": "string"
                }
            ],
            "name": "setRecord",
            "outputs": [],
            "stateMutability": "nonpayable",
            "type": "function"
        },
        {
            "inputs": [
                {
                    "internalType": "bytes4",
                    "name": "interfaceId",
                    "type": "bytes4"
                }
            ],
            "name": "supportsInterface",
            "outputs": [
                {
                    "internalType": "bool",
                    "name": "",
                    "type": "bool"
                }
            ],
            "stateMutability": "view",
            "type": "function"
        },
        {
            "inputs": [],
            "name": "symbol",
            "outputs": [
                {
                    "internalType": "string",
                    "name": "",
                    "type": "string"
                }
            ],
            "stateMutability": "view",
            "type": "function"
        },
        {
            "inputs": [
                {
                    "internalType": "uint256",
                    "name": "tokenId",
                    "type": "uint256"
                }
            ],
            "name": "tokenURI",
            "outputs": [
                {
                    "internalType": "string",
                    "name": "",
                    "type": "string"
                }
            ],
            "stateMutability": "view",
            "type": "function"
        },
        {
            "inputs": [
                {
                    "internalType": "address",
                    "name": "from",
                    "type": "address"
                },
                {
                    "internalType": "address",
                    "name": "to",
                    "type": "address"
                },
                {
                    "internalType": "uint256",
                    "name": "tokenId",
                    "type": "uint256"
                }
            ],
            "name": "transferFrom",
            "outputs": [],
            "stateMutability": "nonpayable",
            "type": "function"
        },
        {
            "inputs": [
                {
                    "internalType": "string",
                    "name": "name",
                    "type": "string"
                }
            ],
            "name": "valid",
            "outputs": [
                {
                    "internalType": "bool",
                    "name": "",
                    "type": "bool"
                }
            ],
            "stateMutability": "pure",
            "type": "function"
        },
        {
            "inputs": [],
            "name": "withdraw",
            "outputs": [],
            "stateMutability": "nonpayable",
            "type": "function"
        }
    ],
    "bytecode": "0x6080604052604051806108a0016040528061086b815260200162004fbb61086b9139600c908051906020019062000038929190620002ac565b506040518060400160405280600d81526020017f3c2f746578743e3c2f7376673e00000000000000000000000000000000000000815250600d908051906020019062000086929190620002ac565b5060405162005848380380620058488339818101604052810190620000ac9190620004f9565b6040518060400160405280601281526020017f4e696e6a61204e616d65205365727669636500000000000000000000000000008152506040518060400160405280600381526020017f4e4e530000000000000000000000000000000000000000000000000000000000815250816000908051906020019062000130929190620002ac565b50806001908051906020019062000149929190620002ac565b50505033600e60006101000a81548173ffffffffffffffffffffffffffffffffffffffff021916908373ffffffffffffffffffffffffffffffffffffffff1602179055508060089080519060200190620001a5929190620002ac565b50620001d6604051806060016040528060228152602001620058266022913982620001dd60201b6200195c1760201c565b5062000647565b6200027f8282604051602401620001f6929190620005a7565b6040516020818303038152906040527f4b5c4277000000000000000000000000000000000000000000000000000000007bffffffffffffffffffffffffffffffffffffffffffffffffffffffff19166020820180517bffffffffffffffffffffffffffffffffffffffffffffffffffffffff83818316178352505050506200028360201b60201c565b5050565b60008151905060006a636f6e736f6c652e6c6f679050602083016000808483855afa5050505050565b828054620002ba9062000611565b90600052602060002090601f016020900481019282620002de57600085556200032a565b82601f10620002f957805160ff19168380011785556200032a565b828001600101855582156200032a579182015b82811115620003295782518255916020019190600101906200030c565b5b5090506200033991906200033d565b5090565b5b80821115620003585760008160009055506001016200033e565b5090565b6000604051905090565b600080fd5b600080fd5b600080fd5b600080fd5b6000601f19601f8301169050919050565b7f4e487b7100000000000000000000000000000000000000000000000000000000600052604160045260246000fd5b620003c5826200037a565b810181811067ffffffffffffffff82111715620003e757620003e66200038b565b5b80604052505050565b6000620003fc6200035c565b90506200040a8282620003ba565b919050565b600067ffffffffffffffff8211156200042d576200042c6200038b565b5b62000438826200037a565b9050602081019050919050565b60005b838110156200046557808201518184015260208101905062000448565b8381111562000475576000848401525b50505050565b6000620004926200048c846200040f565b620003f0565b905082815260208101848484011115620004b157620004b062000375565b5b620004be84828562000445565b509392505050565b600082601f830112620004de57620004dd62000370565b5b8151620004f08482602086016200047b565b91505092915050565b60006020828403121562000512576200051162000366565b5b600082015167ffffffffffffffff8111156200053357620005326200036b565b5b6200054184828501620004c6565b91505092915050565b600081519050919050565b600082825260208201905092915050565b600062000573826200054a565b6200057f818562000555565b93506200059181856020860162000445565b6200059c816200037a565b840191505092915050565b60006040820190508181036000830152620005c3818562000566565b90508181036020830152620005d9818462000566565b90509392505050565b7f4e487b7100000000000000000000000000000000000000000000000000000000600052602260045260246000fd5b600060028204905060018216806200062a57607f821691505b60208210811415620006415762000640620005e2565b5b50919050565b61496480620006576000396000f3fe60806040526004361061014b5760003560e01c806370a08231116100b6578063c1880a981161006f578063c1880a98146104ec578063c87b56dd14610515578063e985e9c514610552578063f2c298be1461058f578063fb825e5f146105ab578063fe2c6198146105d65761014b565b806370a08231146103b857806395d89b41146103f55780639791c09714610420578063a22cb4651461045d578063b88d4fde14610486578063bf40fac1146104af5761014b565b8063264492351161010857806326449235146102845780633ccfd60b146102c157806342842e0e146102d85780634622ab0314610301578063541e771d1461033e5780636352211e1461037b5761014b565b806301ffc9a71461015057806306fdde031461018d578063081812fc146101b8578063095ea7b3146101f557806311dd88451461021e57806323b872dd1461025b575b600080fd5b34801561015c57600080fd5b5061017760048036038101906101729190612d68565b610613565b6040516101849190612db0565b60405180910390f35b34801561019957600080fd5b506101a26106f5565b6040516101af9190612e64565b60405180910390f35b3480156101c457600080fd5b506101df60048036038101906101da9190612ebc565b610787565b6040516101ec9190612f2a565b60405180910390f35b34801561020157600080fd5b5061021c60048036038101906102179190612f71565b61080c565b005b34801561022a57600080fd5b5061024560048036038101906102409190613016565b610924565b6040516102529190612e64565b60405180910390f35b34801561026757600080fd5b50610282600480360381019061027d9190613063565b6109d7565b005b34801561029057600080fd5b506102ab60048036038101906102a691906131e6565b610a37565b6040516102b89190612f2a565b60405180910390f35b3480156102cd57600080fd5b506102d6610a80565b005b3480156102e457600080fd5b506102ff60048036038101906102fa9190613063565b610c3d565b005b34801561030d57600080fd5b5061032860048036038101906103239190612ebc565b610c5d565b6040516103359190612e64565b60405180910390f35b34801561034a57600080fd5b50610365600480360381019061036091906131e6565b610cfd565b6040516103729190612e64565b60405180910390f35b34801561038757600080fd5b506103a2600480360381019061039d9190612ebc565b610db3565b6040516103af9190612f2a565b60405180910390f35b3480156103c457600080fd5b506103df60048036038101906103da919061322f565b610e65565b6040516103ec919061326b565b60405180910390f35b34801561040157600080fd5b5061040a610f1d565b6040516104179190612e64565b60405180910390f35b34801561042c57600080fd5b5061044760048036038101906104429190613016565b610faf565b6040516104549190612db0565b60405180910390f35b34801561046957600080fd5b50610484600480360381019061047f91906132b2565b611063565b005b34801561049257600080fd5b506104ad60048036038101906104a89190613393565b611079565b005b3480156104bb57600080fd5b506104d660048036038101906104d19190613016565b6110db565b6040516104e39190612f2a565b60405180910390f35b3480156104f857600080fd5b50610513600480360381019061050e9190613416565b611126565b005b34801561052157600080fd5b5061053c60048036038101906105379190612ebc565b611201565b6040516105499190612e64565b60405180910390f35b34801561055e57600080fd5b5061057960048036038101906105749190613497565b611353565b6040516105869190612db0565b60405180910390f35b6105a960048036038101906105a49190613016565b6113e7565b005b3480156105b757600080fd5b506105c0611773565b6040516105cd91906135e3565b60405180910390f35b3480156105e257600080fd5b506105fd60048036038101906105f89190613016565b6118b9565b60405161060a919061326b565b60405180910390f35b60007f80ac58cd000000000000000000000000000000000000000000000000000000007bffffffffffffffffffffffffffffffffffffffffffffffffffffffff1916827bffffffffffffffffffffffffffffffffffffffffffffffffffffffff191614806106de57507f5b5e139f000000000000000000000000000000000000000000000000000000007bffffffffffffffffffffffffffffffffffffffffffffffffffffffff1916827bffffffffffffffffffffffffffffffffffffffffffffffffffffffff1916145b806106ee57506106ed826119f8565b5b9050919050565b60606000805461070490613634565b80601f016020809104026020016040519081016040528092919081815260200182805461073090613634565b801561077d5780601f106107525761010080835404028352916020019161077d565b820191906000526020600020905b81548152906001019060200180831161076057829003601f168201915b5050505050905090565b600061079282611a62565b6107d1576040517f08c379a00000000000000000000000000000000000000000000000000000000081526004016107c8906136d8565b60405180910390fd5b6004600083815260200190815260200160002060009054906101000a900473ffffffffffffffffffffffffffffffffffffffff169050919050565b600061081782610db3565b90508073ffffffffffffffffffffffffffffffffffffffff168373ffffffffffffffffffffffffffffffffffffffff161415610888576040517f08c379a000000000000000000000000000000000000000000000000000000000815260040161087f9061376a565b60405180910390fd5b8073ffffffffffffffffffffffffffffffffffffffff166108a7611ace565b73ffffffffffffffffffffffffffffffffffffffff1614806108d657506108d5816108d0611ace565b611353565b5b610915576040517f08c379a000000000000000000000000000000000000000000000000000000000815260040161090c906137fc565b60405180910390fd5b61091f8383611ad6565b505050565b6060600a838360405161093892919061384c565b9081526020016040518091039020805461095190613634565b80601f016020809104026020016040519081016040528092919081815260200182805461097d90613634565b80156109ca5780601f1061099f576101008083540402835291602001916109ca565b820191906000526020600020905b8154815290600101906020018083116109ad57829003601f168201915b5050505050905092915050565b6109e86109e2611ace565b82611b8f565b610a27576040517f08c379a0000000000000000000000000000000000000000000000000000000008152600401610a1e906138d7565b60405180910390fd5b610a32838383611c6d565b505050565b6009818051602081018201805184825260208301602085012081835280955050505050506000915054906101000a900473ffffffffffffffffffffffffffffffffffffffff1681565b600e60009054906101000a900473ffffffffffffffffffffffffffffffffffffffff1673ffffffffffffffffffffffffffffffffffffffff163373ffffffffffffffffffffffffffffffffffffffff1614610b10576040517f08c379a0000000000000000000000000000000000000000000000000000000008152600401610b0790613943565b60405180910390fd5b610b4f6040518060400160405280600e81526020017f62616c616e6365206265666f726500000000000000000000000000000000000081525047611ed4565b60003373ffffffffffffffffffffffffffffffffffffffff1647604051610b7590613994565b60006040518083038185875af1925050503d8060008114610bb2576040519150601f19603f3d011682016040523d82523d6000602084013e610bb7565b606091505b50509050610bfa6040518060400160405280600d81526020017f62616c616e63652061667465720000000000000000000000000000000000000081525047611ed4565b80610c3a576040517f08c379a0000000000000000000000000000000000000000000000000000000008152600401610c31906139f5565b60405180910390fd5b50565b610c5883838360405180602001604052806000815250611079565b505050565b600b6020528060005260406000206000915090508054610c7c90613634565b80601f0160208091040260200160405190810160405280929190818152602001828054610ca890613634565b8015610cf55780601f10610cca57610100808354040283529160200191610cf5565b820191906000526020600020905b815481529060010190602001808311610cd857829003601f168201915b505050505081565b600a818051602081018201805184825260208301602085012081835280955050505050506000915090508054610d3290613634565b80601f0160208091040260200160405190810160405280929190818152602001828054610d5e90613634565b8015610dab5780601f10610d8057610100808354040283529160200191610dab565b820191906000526020600020905b815481529060010190602001808311610d8e57829003601f168201915b505050505081565b6000806002600084815260200190815260200160002060009054906101000a900473ffffffffffffffffffffffffffffffffffffffff169050600073ffffffffffffffffffffffffffffffffffffffff168173ffffffffffffffffffffffffffffffffffffffff161415610e5c576040517f08c379a0000000000000000000000000000000000000000000000000000000008152600401610e5390613a87565b60405180910390fd5b80915050919050565b60008073ffffffffffffffffffffffffffffffffffffffff168273ffffffffffffffffffffffffffffffffffffffff161415610ed6576040517f08c379a0000000000000000000000000000000000000000000000000000000008152600401610ecd90613b19565b60405180910390fd5b600360008373ffffffffffffffffffffffffffffffffffffffff1673ffffffffffffffffffffffffffffffffffffffff168152602001908152602001600020549050919050565b606060018054610f2c90613634565b80601f0160208091040260200160405190810160405280929190818152602001828054610f5890613634565b8015610fa55780601f10610f7a57610100808354040283529160200191610fa5565b820191906000526020600020905b815481529060010190602001808311610f8857829003601f168201915b5050505050905090565b6000600361100084848080601f016020809104026020016040519081016040528093929190818152602001838380828437600081840152601f19601f82011690508083019250505050505050611f70565b1015801561105b5750600a61105884848080601f016020809104026020016040519081016040528093929190818152602001838380828437600081840152601f19601f82011690508083019250505050505050611f70565b11155b905092915050565b61107561106e611ace565b8383612125565b5050565b61108a611084611ace565b83611b8f565b6110c9576040517f08c379a00000000000000000000000000000000000000000000000000000000081526004016110c0906138d7565b60405180910390fd5b6110d584848484612292565b50505050565b6000600983836040516110ef92919061384c565b908152602001604051809103902060009054906101000a900473ffffffffffffffffffffffffffffffffffffffff16905092915050565b6009848460405161113892919061384c565b908152602001604051809103902060009054906101000a900473ffffffffffffffffffffffffffffffffffffffff1673ffffffffffffffffffffffffffffffffffffffff163373ffffffffffffffffffffffffffffffffffffffff16146111cb576040517f82b4290000000000000000000000000000000000000000000000000000000000815260040160405180910390fd5b8181600a86866040516111df92919061384c565b908152602001604051809103902091906111fa929190612bd3565b5050505050565b606061120c82611a62565b61124b576040517f08c379a000000000000000000000000000000000000000000000000000000000815260040161124290613bab565b60405180910390fd5b600060066000848152602001908152602001600020805461126b90613634565b80601f016020809104026020016040519081016040528092919081815260200182805461129790613634565b80156112e45780601f106112b9576101008083540402835291602001916112e4565b820191906000526020600020905b8154815290600101906020018083116112c757829003601f168201915b5050505050905060006112f56122ee565b905060008151141561130b57819250505061134e565b600082511115611340578082604051602001611328929190613bfc565b6040516020818303038152906040529250505061134e565b61134984612305565b925050505b919050565b6000600560008473ffffffffffffffffffffffffffffffffffffffff1673ffffffffffffffffffffffffffffffffffffffff16815260200190815260200160002060008373ffffffffffffffffffffffffffffffffffffffff1673ffffffffffffffffffffffffffffffffffffffff16815260200190815260200160002060009054906101000a900460ff16905092915050565b600073ffffffffffffffffffffffffffffffffffffffff166009838360405161141192919061384c565b908152602001604051809103902060009054906101000a900473ffffffffffffffffffffffffffffffffffffffff1673ffffffffffffffffffffffffffffffffffffffff161461148d576040517f3a81d6fc00000000000000000000000000000000000000000000000000000000815260040160405180910390fd5b6114978282610faf565b6114da5781816040517f7f19f48d0000000000000000000000000000000000000000000000000000000081526004016114d1929190613c4d565b60405180910390fd5b60006114e683836118b9565b90508034101561152b576040517f08c379a000000000000000000000000000000000000000000000000000000000815260040161152290613cbd565b60405180910390fd5b60008383600860405160200161154393929190613dbd565b60405160208183030381529060405290506000600c82600d60405160200161156d93929190613dee565b6040516020818303038152906040529050600061158a60076123ac565b905060006115db87878080601f016020809104026020016040519081016040528093929190818152602001838380828437600081840152601f19601f82011690508083019250505050505050611f70565b905060006115e8826123ba565b90506000611620866115f98761251b565b8460405160200161160c93929190613f9b565b60405160208183030381529060405261251b565b90506000816040516020016116359190614044565b604051602081830303815290604052905061166760405180606001604052806039815260200161487d6039913961267f565b6116a66040518060400160405280600e81526020017f46696e616c20746f6b656e5552490000000000000000000000000000000000008152508261195c565b6116c76040518060600160405280603981526020016148b66039913961267f565b6116d13386612718565b6116db8582612736565b3360098b8b6040516116ee92919061384c565b908152602001604051809103902060006101000a81548173ffffffffffffffffffffffffffffffffffffffff021916908373ffffffffffffffffffffffffffffffffffffffff1602179055508989600b6000888152602001908152602001600020919061175c929190612bd3565b5061176760076127aa565b50505050505050505050565b6060600061178160076123ac565b67ffffffffffffffff81111561179a576117996130bb565b5b6040519080825280602002602001820160405280156117cd57816020015b60608152602001906001900390816117b85790505b50905060005b6117dd60076123ac565b8110156118b157600b6000828152602001908152602001600020805461180290613634565b80601f016020809104026020016040519081016040528092919081815260200182805461182e90613634565b801561187b5780601f106118505761010080835404028352916020019161187b565b820191906000526020600020905b81548152906001019060200180831161185e57829003601f168201915b505050505082828151811061189357611892614066565b5b602002602001018190525080806118a9906140c4565b9150506117d3565b508091505090565b60008061190984848080601f016020809104026020016040519081016040528093929190818152602001838380828437600081840152601f19601f82011690508083019250505050505050611f70565b90506000811161191857600080fd5b60038114156119315766b1a2bc2ec50000915050611956565b600481141561194a57666a94d74f430000915050611956565b662386f26fc100009150505b92915050565b6119f4828260405160240161197292919061410d565b6040516020818303038152906040527f4b5c4277000000000000000000000000000000000000000000000000000000007bffffffffffffffffffffffffffffffffffffffffffffffffffffffff19166020820180517bffffffffffffffffffffffffffffffffffffffffffffffffffffffff83818316178352505050506127c0565b5050565b60007f01ffc9a7000000000000000000000000000000000000000000000000000000007bffffffffffffffffffffffffffffffffffffffffffffffffffffffff1916827bffffffffffffffffffffffffffffffffffffffffffffffffffffffff1916149050919050565b60008073ffffffffffffffffffffffffffffffffffffffff166002600084815260200190815260200160002060009054906101000a900473ffffffffffffffffffffffffffffffffffffffff1673ffffffffffffffffffffffffffffffffffffffff1614159050919050565b600033905090565b816004600083815260200190815260200160002060006101000a81548173ffffffffffffffffffffffffffffffffffffffff021916908373ffffffffffffffffffffffffffffffffffffffff160217905550808273ffffffffffffffffffffffffffffffffffffffff16611b4983610db3565b73ffffffffffffffffffffffffffffffffffffffff167f8c5be1e5ebec7d5bd14f71427d1e84f3dd0314c0f7b2291e5b200ac8c7c3b92560405160405180910390a45050565b6000611b9a82611a62565b611bd9576040517f08c379a0000000000000000000000000000000000000000000000000000000008152600401611bd0906141b6565b60405180910390fd5b6000611be483610db3565b90508073ffffffffffffffffffffffffffffffffffffffff168473ffffffffffffffffffffffffffffffffffffffff161480611c265750611c258185611353565b5b80611c6457508373ffffffffffffffffffffffffffffffffffffffff16611c4c84610787565b73ffffffffffffffffffffffffffffffffffffffff16145b91505092915050565b8273ffffffffffffffffffffffffffffffffffffffff16611c8d82610db3565b73ffffffffffffffffffffffffffffffffffffffff1614611ce3576040517f08c379a0000000000000000000000000000000000000000000000000000000008152600401611cda90614248565b60405180910390fd5b600073ffffffffffffffffffffffffffffffffffffffff168273ffffffffffffffffffffffffffffffffffffffff161415611d53576040517f08c379a0000000000000000000000000000000000000000000000000000000008152600401611d4a906142da565b60405180910390fd5b611d5e8383836127e9565b611d69600082611ad6565b6001600360008573ffffffffffffffffffffffffffffffffffffffff1673ffffffffffffffffffffffffffffffffffffffff1681526020019081526020016000206000828254611db991906142fa565b925050819055506001600360008473ffffffffffffffffffffffffffffffffffffffff1673ffffffffffffffffffffffffffffffffffffffff1681526020019081526020016000206000828254611e10919061432e565b92505081905550816002600083815260200190815260200160002060006101000a81548173ffffffffffffffffffffffffffffffffffffffff021916908373ffffffffffffffffffffffffffffffffffffffff160217905550808273ffffffffffffffffffffffffffffffffffffffff168473ffffffffffffffffffffffffffffffffffffffff167fddf252ad1be2c89b69c2b068fc378daa952ba7f163c4a11628f55a4df523b3ef60405160405180910390a4611ecf8383836127ee565b505050565b611f6c8282604051602401611eea929190614384565b6040516020818303038152906040527f9710a9d0000000000000000000000000000000000000000000000000000000007bffffffffffffffffffffffffffffffffffffffffffffffffffffffff19166020820180517bffffffffffffffffffffffffffffffffffffffffffffffffffffffff83818316178352505050506127c0565b5050565b60008060008084519050600092505b8082101561211a576000858381518110611f9c57611f9b614066565b5b602001015160f81c60f81b9050608060f81b817effffffffffffffffffffffffffffffffffffffffffffffffffffffffffffff19161015611feb57600183611fe4919061432e565b9250612106565b60e060f81b817effffffffffffffffffffffffffffffffffffffffffffffffffffffffffffff1916101561202d57600283612026919061432e565b9250612105565b60f060f81b817effffffffffffffffffffffffffffffffffffffffffffffffffffffffffffff1916101561206f57600383612068919061432e565b9250612104565b60f8801b817effffffffffffffffffffffffffffffffffffffffffffffffffffffffffffff191610156120b0576004836120a9919061432e565b9250612103565b60fc60f81b817effffffffffffffffffffffffffffffffffffffffffffffffffffffffffffff191610156120f2576005836120eb919061432e565b9250612102565b6006836120ff919061432e565b92505b5b5b5b5b508280612112906140c4565b935050611f7f565b829350505050919050565b8173ffffffffffffffffffffffffffffffffffffffff168373ffffffffffffffffffffffffffffffffffffffff161415612194576040517f08c379a000000000000000000000000000000000000000000000000000000000815260040161218b90614400565b60405180910390fd5b80600560008573ffffffffffffffffffffffffffffffffffffffff1673ffffffffffffffffffffffffffffffffffffffff16815260200190815260200160002060008473ffffffffffffffffffffffffffffffffffffffff1673ffffffffffffffffffffffffffffffffffffffff16815260200190815260200160002060006101000a81548160ff0219169083151502179055508173ffffffffffffffffffffffffffffffffffffffff168373ffffffffffffffffffffffffffffffffffffffff167f17307eab39ab6107e8899845ad3d59bd9653f200f220920489ca2b5937696c31836040516122859190612db0565b60405180910390a3505050565b61229d848484611c6d565b6122a9848484846127f3565b6122e8576040517f08c379a00000000000000000000000000000000000000000000000000000000081526004016122df90614492565b60405180910390fd5b50505050565b606060405180602001604052806000815250905090565b606061231082611a62565b61234f576040517f08c379a000000000000000000000000000000000000000000000000000000000815260040161234690614524565b60405180910390fd5b60006123596122ee565b9050600081511161237957604051806020016040528060008152506123a4565b80612383846123ba565b604051602001612394929190613bfc565b6040516020818303038152906040525b915050919050565b600081600001549050919050565b60606000821415612402576040518060400160405280600181526020017f30000000000000000000000000000000000000000000000000000000000000008152509050612516565b600082905060005b6000821461243457808061241d906140c4565b915050600a8261242d9190614573565b915061240a565b60008167ffffffffffffffff8111156124505761244f6130bb565b5b6040519080825280601f01601f1916602001820160405280156124825781602001600182028036833780820191505090505b5090505b6000851461250f5760018261249b91906142fa565b9150600a856124aa91906145a4565b60306124b6919061432e565b60f81b8183815181106124cc576124cb614066565b5b60200101907effffffffffffffffffffffffffffffffffffffffffffffffffffffffffffff1916908160001a905350600a856125089190614573565b9450612486565b8093505050505b919050565b606060008251141561253e5760405180602001604052806000815250905061267a565b60006040518060600160405280604081526020016148ef604091399050600060036002855161256d919061432e565b6125779190614573565b600461258391906145d5565b67ffffffffffffffff81111561259c5761259b6130bb565b5b6040519080825280601f01601f1916602001820160405280156125ce5781602001600182028036833780820191505090505b509050600182016020820185865187015b8082101561263a576003820191508151603f8160121c168501518453600184019350603f81600c1c168501518453600184019350603f8160061c168501518453600184019350603f81168501518453600184019350506125df565b5050600386510660018114612656576002811461266957612671565b603d6001830353603d6002830353612671565b603d60018303535b50505080925050505b919050565b612715816040516024016126939190612e64565b6040516020818303038152906040527f41304fac000000000000000000000000000000000000000000000000000000007bffffffffffffffffffffffffffffffffffffffffffffffffffffffff19166020820180517bffffffffffffffffffffffffffffffffffffffffffffffffffffffff83818316178352505050506127c0565b50565b61273282826040518060200160405280600081525061297b565b5050565b61273f82611a62565b61277e576040517f08c379a0000000000000000000000000000000000000000000000000000000008152600401612775906146a1565b60405180910390fd5b806006600084815260200190815260200160002090805190602001906127a5929190612c59565b505050565b6001816000016000828254019250508190555050565b60008151905060006a636f6e736f6c652e6c6f679050602083016000808483855afa5050505050565b505050565b505050565b60006128148473ffffffffffffffffffffffffffffffffffffffff166129d6565b1561296e578373ffffffffffffffffffffffffffffffffffffffff1663150b7a0261283d611ace565b8786866040518563ffffffff1660e01b815260040161285f9493929190614716565b6020604051808303816000875af192505050801561289b57506040513d601f19601f820116820180604052508101906128989190614777565b60015b61291e573d80600081146128cb576040519150601f19603f3d011682016040523d82523d6000602084013e6128d0565b606091505b50600081511415612916576040517f08c379a000000000000000000000000000000000000000000000000000000000815260040161290d90614492565b60405180910390fd5b805181602001fd5b63150b7a0260e01b7bffffffffffffffffffffffffffffffffffffffffffffffffffffffff1916817bffffffffffffffffffffffffffffffffffffffffffffffffffffffff191614915050612973565b600190505b949350505050565b61298583836129f9565b61299260008484846127f3565b6129d1576040517f08c379a00000000000000000000000000000000000000000000000000000000081526004016129c890614492565b60405180910390fd5b505050565b6000808273ffffffffffffffffffffffffffffffffffffffff163b119050919050565b600073ffffffffffffffffffffffffffffffffffffffff168273ffffffffffffffffffffffffffffffffffffffff161415612a69576040517f08c379a0000000000000000000000000000000000000000000000000000000008152600401612a60906147f0565b60405180910390fd5b612a7281611a62565b15612ab2576040517f08c379a0000000000000000000000000000000000000000000000000000000008152600401612aa99061485c565b60405180910390fd5b612abe600083836127e9565b6001600360008473ffffffffffffffffffffffffffffffffffffffff1673ffffffffffffffffffffffffffffffffffffffff1681526020019081526020016000206000828254612b0e919061432e565b92505081905550816002600083815260200190815260200160002060006101000a81548173ffffffffffffffffffffffffffffffffffffffff021916908373ffffffffffffffffffffffffffffffffffffffff160217905550808273ffffffffffffffffffffffffffffffffffffffff16600073ffffffffffffffffffffffffffffffffffffffff167fddf252ad1be2c89b69c2b068fc378daa952ba7f163c4a11628f55a4df523b3ef60405160405180910390a4612bcf600083836127ee565b5050565b828054612bdf90613634565b90600052602060002090601f016020900481019282612c015760008555612c48565b82601f10612c1a57803560ff1916838001178555612c48565b82800160010185558215612c48579182015b82811115612c47578235825591602001919060010190612c2c565b5b509050612c559190612cdf565b5090565b828054612c6590613634565b90600052602060002090601f016020900481019282612c875760008555612cce565b82601f10612ca057805160ff1916838001178555612cce565b82800160010185558215612cce579182015b82811115612ccd578251825591602001919060010190612cb2565b5b509050612cdb9190612cdf565b5090565b5b80821115612cf8576000816000905550600101612ce0565b5090565b6000604051905090565b600080fd5b600080fd5b60007fffffffff0000000000000000000000000000000000000000000000000000000082169050919050565b612d4581612d10565b8114612d5057600080fd5b50565b600081359050612d6281612d3c565b92915050565b600060208284031215612d7e57612d7d612d06565b5b6000612d8c84828501612d53565b91505092915050565b60008115159050919050565b612daa81612d95565b82525050565b6000602082019050612dc56000830184612da1565b92915050565b600081519050919050565b600082825260208201905092915050565b60005b83811015612e05578082015181840152602081019050612dea565b83811115612e14576000848401525b50505050565b6000601f19601f8301169050919050565b6000612e3682612dcb565b612e408185612dd6565b9350612e50818560208601612de7565b612e5981612e1a565b840191505092915050565b60006020820190508181036000830152612e7e8184612e2b565b905092915050565b6000819050919050565b612e9981612e86565b8114612ea457600080fd5b50565b600081359050612eb681612e90565b92915050565b600060208284031215612ed257612ed1612d06565b5b6000612ee084828501612ea7565b91505092915050565b600073ffffffffffffffffffffffffffffffffffffffff82169050919050565b6000612f1482612ee9565b9050919050565b612f2481612f09565b82525050565b6000602082019050612f3f6000830184612f1b565b92915050565b612f4e81612f09565b8114612f5957600080fd5b50565b600081359050612f6b81612f45565b92915050565b60008060408385031215612f8857612f87612d06565b5b6000612f9685828601612f5c565b9250506020612fa785828601612ea7565b9150509250929050565b600080fd5b600080fd5b600080fd5b60008083601f840112612fd657612fd5612fb1565b5b8235905067ffffffffffffffff811115612ff357612ff2612fb6565b5b60208301915083600182028301111561300f5761300e612fbb565b5b9250929050565b6000806020838503121561302d5761302c612d06565b5b600083013567ffffffffffffffff81111561304b5761304a612d0b565b5b61305785828601612fc0565b92509250509250929050565b60008060006060848603121561307c5761307b612d06565b5b600061308a86828701612f5c565b935050602061309b86828701612f5c565b92505060406130ac86828701612ea7565b9150509250925092565b600080fd5b7f4e487b7100000000000000000000000000000000000000000000000000000000600052604160045260246000fd5b6130f382612e1a565b810181811067ffffffffffffffff82111715613112576131116130bb565b5b80604052505050565b6000613125612cfc565b905061313182826130ea565b919050565b600067ffffffffffffffff821115613151576131506130bb565b5b61315a82612e1a565b9050602081019050919050565b82818337600083830152505050565b600061318961318484613136565b61311b565b9050828152602081018484840111156131a5576131a46130b6565b5b6131b0848285613167565b509392505050565b600082601f8301126131cd576131cc612fb1565b5b81356131dd848260208601613176565b91505092915050565b6000602082840312156131fc576131fb612d06565b5b600082013567ffffffffffffffff81111561321a57613219612d0b565b5b613226848285016131b8565b91505092915050565b60006020828403121561324557613244612d06565b5b600061325384828501612f5c565b91505092915050565b61326581612e86565b82525050565b6000602082019050613280600083018461325c565b92915050565b61328f81612d95565b811461329a57600080fd5b50565b6000813590506132ac81613286565b92915050565b600080604083850312156132c9576132c8612d06565b5b60006132d785828601612f5c565b92505060206132e88582860161329d565b9150509250929050565b600067ffffffffffffffff82111561330d5761330c6130bb565b5b61331682612e1a565b9050602081019050919050565b6000613336613331846132f2565b61311b565b905082815260208101848484011115613352576133516130b6565b5b61335d848285613167565b509392505050565b600082601f83011261337a57613379612fb1565b5b813561338a848260208601613323565b91505092915050565b600080600080608085870312156133ad576133ac612d06565b5b60006133bb87828801612f5c565b94505060206133cc87828801612f5c565b93505060406133dd87828801612ea7565b925050606085013567ffffffffffffffff8111156133fe576133fd612d0b565b5b61340a87828801613365565b91505092959194509250565b600080600080604085870312156134305761342f612d06565b5b600085013567ffffffffffffffff81111561344e5761344d612d0b565b5b61345a87828801612fc0565b9450945050602085013567ffffffffffffffff81111561347d5761347c612d0b565b5b61348987828801612fc0565b925092505092959194509250565b600080604083850312156134ae576134ad612d06565b5b60006134bc85828601612f5c565b92505060206134cd85828601612f5c565b9150509250929050565b600081519050919050565b600082825260208201905092915050565b6000819050602082019050919050565b600082825260208201905092915050565b600061351f82612dcb565b6135298185613503565b9350613539818560208601612de7565b61354281612e1a565b840191505092915050565b60006135598383613514565b905092915050565b6000602082019050919050565b6000613579826134d7565b61358381856134e2565b935083602082028501613595856134f3565b8060005b858110156135d157848403895281516135b2858261354d565b94506135bd83613561565b925060208a01995050600181019050613599565b50829750879550505050505092915050565b600060208201905081810360008301526135fd818461356e565b905092915050565b7f4e487b7100000000000000000000000000000000000000000000000000000000600052602260045260246000fd5b6000600282049050600182168061364c57607f821691505b602082108114156136605761365f613605565b5b50919050565b7f4552433732313a20617070726f76656420717565727920666f72206e6f6e657860008201527f697374656e7420746f6b656e0000000000000000000000000000000000000000602082015250565b60006136c2602c83612dd6565b91506136cd82613666565b604082019050919050565b600060208201905081810360008301526136f1816136b5565b9050919050565b7f4552433732313a20617070726f76616c20746f2063757272656e74206f776e6560008201527f7200000000000000000000000000000000000000000000000000000000000000602082015250565b6000613754602183612dd6565b915061375f826136f8565b604082019050919050565b6000602082019050818103600083015261378381613747565b9050919050565b7f4552433732313a20617070726f76652063616c6c6572206973206e6f74206f7760008201527f6e6572206e6f7220617070726f76656420666f7220616c6c0000000000000000602082015250565b60006137e6603883612dd6565b91506137f18261378a565b604082019050919050565b60006020820190508181036000830152613815816137d9565b9050919050565b600081905092915050565b6000613833838561381c565b9350613840838584613167565b82840190509392505050565b6000613859828486613827565b91508190509392505050565b7f4552433732313a207472616e736665722063616c6c6572206973206e6f74206f60008201527f776e6572206e6f7220617070726f766564000000000000000000000000000000602082015250565b60006138c1603183612dd6565b91506138cc82613865565b604082019050919050565b600060208201905081810360008301526138f0816138b4565b9050919050565b7f4f6e6c79206f776e65722063616e2063616c6c2074686973206d6574686f6400600082015250565b600061392d601f83612dd6565b9150613938826138f7565b602082019050919050565b6000602082019050818103600083015261395c81613920565b9050919050565b600081905092915050565b50565b600061397e600083613963565b91506139898261396e565b600082019050919050565b600061399f82613971565b9150819050919050565b7f436f756c64206e6f742077697468647261770000000000000000000000000000600082015250565b60006139df601283612dd6565b91506139ea826139a9565b602082019050919050565b60006020820190508181036000830152613a0e816139d2565b9050919050565b7f4552433732313a206f776e657220717565727920666f72206e6f6e657869737460008201527f656e7420746f6b656e0000000000000000000000000000000000000000000000602082015250565b6000613a71602983612dd6565b9150613a7c82613a15565b604082019050919050565b60006020820190508181036000830152613aa081613a64565b9050919050565b7f4552433732313a2062616c616e636520717565727920666f7220746865207a6560008201527f726f206164647265737300000000000000000000000000000000000000000000602082015250565b6000613b03602a83612dd6565b9150613b0e82613aa7565b604082019050919050565b60006020820190508181036000830152613b3281613af6565b9050919050565b7f45524337323155524953746f726167653a2055524920717565727920666f722060008201527f6e6f6e6578697374656e7420746f6b656e000000000000000000000000000000602082015250565b6000613b95603183612dd6565b9150613ba082613b39565b604082019050919050565b60006020820190508181036000830152613bc481613b88565b9050919050565b6000613bd682612dcb565b613be0818561381c565b9350613bf0818560208601612de7565b80840191505092915050565b6000613c088285613bcb565b9150613c148284613bcb565b91508190509392505050565b6000613c2c8385612dd6565b9350613c39838584613167565b613c4283612e1a565b840190509392505050565b60006020820190508181036000830152613c68818486613c20565b90509392505050565b7f4e6f7420656e6f756768204d6174696320706169640000000000000000000000600082015250565b6000613ca7601583612dd6565b9150613cb282613c71565b602082019050919050565b60006020820190508181036000830152613cd681613c9a565b9050919050565b7f2e00000000000000000000000000000000000000000000000000000000000000600082015250565b6000613d1360018361381c565b9150613d1e82613cdd565b600182019050919050565b60008190508160005260206000209050919050565b60008154613d4b81613634565b613d55818661381c565b94506001821660008114613d705760018114613d8157613db4565b60ff19831686528186019350613db4565b613d8a85613d29565b60005b83811015613dac57815481890152600182019150602081019050613d8d565b838801955050505b50505092915050565b6000613dca828587613827565b9150613dd582613d06565b9150613de18284613d3e565b9150819050949350505050565b6000613dfa8286613d3e565b9150613e068285613bcb565b9150613e128284613d3e565b9150819050949350505050565b7f7b226e616d65223a202200000000000000000000000000000000000000000000600082015250565b6000613e55600a8361381c565b9150613e6082613e1f565b600a82019050919050565b7f222c20226465736372697074696f6e223a20224120646f6d61696e206f6e207460008201527f6865204e696e6a61206e616d652073657276696365222c2022696d616765223a60208201527f2022646174613a696d6167652f7376672b786d6c3b6261736536342c00000000604082015250565b6000613eed605c8361381c565b9150613ef882613e6b565b605c82019050919050565b7f222c226c656e677468223a220000000000000000000000000000000000000000600082015250565b6000613f39600c8361381c565b9150613f4482613f03565b600c82019050919050565b7f227d000000000000000000000000000000000000000000000000000000000000600082015250565b6000613f8560028361381c565b9150613f9082613f4f565b600282019050919050565b6000613fa682613e48565b9150613fb28286613bcb565b9150613fbd82613ee0565b9150613fc98285613bcb565b9150613fd482613f2c565b9150613fe08284613bcb565b9150613feb82613f78565b9150819050949350505050565b7f646174613a6170706c69636174696f6e2f6a736f6e3b6261736536342c000000600082015250565b600061402e601d8361381c565b915061403982613ff8565b601d82019050919050565b600061404f82614021565b915061405b8284613bcb565b915081905092915050565b7f4e487b7100000000000000000000000000000000000000000000000000000000600052603260045260246000fd5b7f4e487b7100000000000000000000000000000000000000000000000000000000600052601160045260246000fd5b60006140cf82612e86565b91507fffffffffffffffffffffffffffffffffffffffffffffffffffffffffffffffff82141561410257614101614095565b5b600182019050919050565b600060408201905081810360008301526141278185612e2b565b9050818103602083015261413b8184612e2b565b90509392505050565b7f4552433732313a206f70657261746f7220717565727920666f72206e6f6e657860008201527f697374656e7420746f6b656e0000000000000000000000000000000000000000602082015250565b60006141a0602c83612dd6565b91506141ab82614144565b604082019050919050565b600060208201905081810360008301526141cf81614193565b9050919050565b7f4552433732313a207472616e736665722066726f6d20696e636f72726563742060008201527f6f776e6572000000000000000000000000000000000000000000000000000000602082015250565b6000614232602583612dd6565b915061423d826141d6565b604082019050919050565b6000602082019050818103600083015261426181614225565b9050919050565b7f4552433732313a207472616e7366657220746f20746865207a65726f2061646460008201527f7265737300000000000000000000000000000000000000000000000000000000602082015250565b60006142c4602483612dd6565b91506142cf82614268565b604082019050919050565b600060208201905081810360008301526142f3816142b7565b9050919050565b600061430582612e86565b915061431083612e86565b92508282101561432357614322614095565b5b828203905092915050565b600061433982612e86565b915061434483612e86565b9250827fffffffffffffffffffffffffffffffffffffffffffffffffffffffffffffffff0382111561437957614378614095565b5b828201905092915050565b6000604082019050818103600083015261439e8185612e2b565b90506143ad602083018461325c565b9392505050565b7f4552433732313a20617070726f766520746f2063616c6c657200000000000000600082015250565b60006143ea601983612dd6565b91506143f5826143b4565b602082019050919050565b60006020820190508181036000830152614419816143dd565b9050919050565b7f4552433732313a207472616e7366657220746f206e6f6e20455243373231526560008201527f63656976657220696d706c656d656e7465720000000000000000000000000000602082015250565b600061447c603283612dd6565b915061448782614420565b604082019050919050565b600060208201905081810360008301526144ab8161446f565b9050919050565b7f4552433732314d657461646174613a2055524920717565727920666f72206e6f60008201527f6e6578697374656e7420746f6b656e0000000000000000000000000000000000602082015250565b600061450e602f83612dd6565b9150614519826144b2565b604082019050919050565b6000602082019050818103600083015261453d81614501565b9050919050565b7f4e487b7100000000000000000000000000000000000000000000000000000000600052601260045260246000fd5b600061457e82612e86565b915061458983612e86565b92508261459957614598614544565b5b828204905092915050565b60006145af82612e86565b91506145ba83612e86565b9250826145ca576145c9614544565b5b828206905092915050565b60006145e082612e86565b91506145eb83612e86565b9250817fffffffffffffffffffffffffffffffffffffffffffffffffffffffffffffffff048311821515161561462457614623614095565b5b828202905092915050565b7f45524337323155524953746f726167653a2055524920736574206f66206e6f6e60008201527f6578697374656e7420746f6b656e000000000000000000000000000000000000602082015250565b600061468b602e83612dd6565b91506146968261462f565b604082019050919050565b600060208201905081810360008301526146ba8161467e565b9050919050565b600081519050919050565b600082825260208201905092915050565b60006146e8826146c1565b6146f281856146cc565b9350614702818560208601612de7565b61470b81612e1a565b840191505092915050565b600060808201905061472b6000830187612f1b565b6147386020830186612f1b565b614745604083018561325c565b818103606083015261475781846146dd565b905095945050505050565b60008151905061477181612d3c565b92915050565b60006020828403121561478d5761478c612d06565b5b600061479b84828501614762565b91505092915050565b7f4552433732313a206d696e7420746f20746865207a65726f2061646472657373600082015250565b60006147da602083612dd6565b91506147e5826147a4565b602082019050919050565b60006020820190508181036000830152614809816147cd565b9050919050565b7f4552433732313a20746f6b656e20616c7265616479206d696e74656400000000600082015250565b6000614846601c83612dd6565b915061485182614810565b602082019050919050565b6000602082019050818103600083015261487581614839565b905091905056fe0a2d2d2d2d2d2d2d2d2d2d2d2d2d2d2d2d2d2d2d2d2d2d2d2d2d2d2d2d2d2d2d2d2d2d2d2d2d2d2d2d2d2d2d2d2d2d2d2d2d2d2d2d2d2d2d2d2d2d2d2d2d2d2d2d2d2d2d2d2d2d2d2d2d2d2d2d2d2d2d2d2d2d2d2d2d2d2d2d2d2d2d2d2d2d2d2d2d2d2d2d2d2d2d2d2d2d2d2d2d2d2d2d0a4142434445464748494a4b4c4d4e4f505152535455565758595a6162636465666768696a6b6c6d6e6f707172737475767778797a303132333435363738392b2fa264697066735822122097dc67f772ab0e0b75d59ee38ee000721c7b3d8d0ee025dfffc3ae76b4678d5b64736f6c634300080a00333c73766720786d6c6e733d22687474703a2f2f7777772e77332e6f72672f323030302f737667222077696474683d2232373022206865696768743d22323730222066696c6c3d226e6f6e65223e3c706174682066696c6c3d2275726c282342292220643d224d302030683237307632373048307a222f3e3c646566733e3c66696c7465722069643d22412220636f6c6f722d696e746572706f6c6174696f6e2d66696c746572733d2273524742222066696c746572556e6974733d227573657253706163654f6e55736522206865696768743d22323730222077696474683d22323730223e3c666544726f70536861646f772064783d2230222064793d22312220737464446576696174696f6e3d22322220666c6f6f642d6f7061636974793d222e323235222077696474683d223230302522206865696768743d2232303025222f3e3c2f66696c7465723e3c2f646566733e3c7061746820643d224d37322e3836332034322e393439632d2e3636382d2e3338372d312e3432362d2e35392d322e3139372d2e3539732d312e3532392e3230342d322e3139372e35396c2d31302e30383120362e3033322d362e383520332e3933342d31302e30383120362e303332632d2e3636382e3338372d312e3432362e35392d322e3139372e3539732d312e3532392d2e3230342d322e3139372d2e35396c2d382e3031332d342e37323161342e353220342e35322030203020312d312e3538392d312e363136632d2e3338342d2e3636352d2e3539342d312e3431382d2e3630382d322e313837762d392e3331632d2e3031332d2e3737352e3138352d312e3533382e3537322d322e32303861342e323520342e323520302030203120312e3632352d312e3539356c372e3838342d342e3539632e3636382d2e33383720312e3432362d2e353920322e3139372d2e353973312e3532392e32303420322e3139372e35396c372e38383420342e353961342e353220342e353220302030203120312e35383920312e363136632e3338342e3636352e35393420312e3431382e36303820322e31383776362e3033326c362e38352d342e303635762d362e303332632e3031332d2e3737352d2e3138352d312e3533382d2e3537322d322e32303861342e323520342e32352030203020302d312e3632352d312e3539354c34312e3435362032342e3539632d2e3636382d2e3338372d312e3432362d2e35392d322e3139372d2e3539732d312e3532392e3230342d322e3139372e35396c2d31342e38363420382e36353561342e323520342e32352030203020302d312e36323520312e353935632d2e3338372e36372d2e35383520312e3433342d2e35373220322e3230387631372e343431632d2e3031332e3737352e31383520312e3533382e35373220322e32303861342e323520342e323520302030203020312e36323520312e3539356c31342e38363420382e363535632e3636382e33383720312e3432362e353920322e3139372e353973312e3532392d2e32303420322e3139372d2e35396c31302e3038312d352e39303120362e38352d342e3036352031302e3038312d352e393031632e3636382d2e33383720312e3432362d2e353920322e3139372d2e353973312e3532392e32303420322e3139372e35396c372e38383420342e353961342e353220342e353220302030203120312e35383920312e363136632e3338342e3636352e35393420312e3431382e36303820322e31383776392e333131632e3031332e3737352d2e31383520312e3533382d2e35373220322e32303861342e323520342e32352030203020312d312e36323520312e3539356c2d372e38383420342e373231632d2e3636382e3338372d312e3432362e35392d322e3139372e3539732d312e3532392d2e3230342d322e3139372d2e35396c2d372e3838342d342e353961342e353220342e35322030203020312d312e3538392d312e363136632d2e3338352d2e3636352d2e3539342d312e3431382d2e3630382d322e313837762d362e3033326c2d362e383520342e30363576362e303332632d2e3031332e3737352e31383520312e3533382e35373220322e32303861342e323520342e323520302030203020312e36323520312e3539356c31342e38363420382e363535632e3636382e33383720312e3432362e353920322e3139372e353973312e3532392d2e32303420322e3139372d2e35396c31342e3836342d382e363535632e3635372d2e33393420312e3230342d2e393520312e3538392d312e363136732e3539342d312e3431382e3630392d322e3138375635352e353338632e3031332d2e3737352d2e3138352d312e3533382d2e3537322d322e32303861342e323520342e32352030203020302d312e3632352d312e3539356c2d31342e3939332d382e3738367a222066696c6c3d2223666666222f3e3c646566733e3c6c696e6561724772616469656e742069643d2242222078313d2230222079313d2230222078323d22323730222079323d2232373022206772616469656e74556e6974733d227573657253706163654f6e557365223e3c73746f702073746f702d636f6c6f723d2223636235656565222f3e3c73746f70206f66667365743d2231222073746f702d636f6c6f723d2223306364376534222073746f702d6f7061636974793d222e3939222f3e3c2f6c696e6561724772616469656e743e3c2f646566733e3c7465787420783d2233322e352220793d223233312220666f6e742d73697a653d223237222066696c6c3d2223666666222066696c7465723d2275726c282341292220666f6e742d66616d696c793d22506c7573204a616b617274612053616e732c44656a6156752053616e732c4e6f746f20436f6c6f7220456d6f6a692c4170706c6520436f6c6f7220456d6f6a692c73616e732d73657269662220666f6e742d7765696768743d22626f6c64223e54484953204953204d5920444f4d41494e5320434f4e54524143542e204e4943452e",
    "linkReferences": {},
    "deployedLinkReferences": {}
}